{
	"contracts/Wallet.sol": {
		"Wallet": {
			"abi": [
				{
					"anonymous": false,
					"inputs": [
						{
							"indexed": true,
							"internalType": "address",
							"name": "_from",
							"type": "address"
						},
						{
							"indexed": false,
							"internalType": "uint256",
							"name": "_amount",
							"type": "uint256"
						}
					],
					"name": "MoneyReceived",
					"type": "event"
				},
				{
					"anonymous": false,
					"inputs": [
						{
							"indexed": true,
							"internalType": "address",
							"name": "_to",
							"type": "address"
						},
						{
							"indexed": false,
							"internalType": "uint256",
							"name": "_amount",
							"type": "uint256"
						}
					],
					"name": "MoneyWithdrawn",
					"type": "event"
				},
				{
					"anonymous": false,
					"inputs": [
						{
							"indexed": true,
							"internalType": "address",
							"name": "previousOwner",
							"type": "address"
						},
						{
							"indexed": true,
							"internalType": "address",
							"name": "newOwner",
							"type": "address"
						}
					],
					"name": "OwnershipTransferred",
					"type": "event"
				},
				{
					"stateMutability": "payable",
					"type": "fallback"
				},
				{
					"inputs": [
						{
							"internalType": "uint256",
							"name": "_limit",
							"type": "uint256"
						},
						{
							"internalType": "address",
							"name": "_member",
							"type": "address"
						}
					],
					"name": "addLimit",
					"outputs": [],
					"stateMutability": "nonpayable",
					"type": "function"
				},
				{
					"inputs": [],
					"name": "getBalance",
					"outputs": [
						{
							"internalType": "uint256",
							"name": "",
							"type": "uint256"
						}
					],
					"stateMutability": "view",
					"type": "function"
				},
				{
					"inputs": [
						{
							"internalType": "address",
							"name": "",
							"type": "address"
						}
					],
					"name": "members",
					"outputs": [
						{
							"internalType": "uint256",
							"name": "",
							"type": "uint256"
						}
					],
					"stateMutability": "view",
					"type": "function"
				},
				{
					"inputs": [],
					"name": "owner",
					"outputs": [
						{
							"internalType": "address",
							"name": "",
							"type": "address"
						}
					],
					"stateMutability": "view",
					"type": "function"
				},
				{
					"inputs": [],
					"name": "renounceOwnership",
					"outputs": [],
					"stateMutability": "view",
					"type": "function"
				},
				{
					"inputs": [
						{
							"internalType": "address",
							"name": "newOwner",
							"type": "address"
						}
					],
					"name": "transferOwnership",
					"outputs": [],
					"stateMutability": "nonpayable",
					"type": "function"
				},
				{
					"inputs": [
						{
							"internalType": "uint256",
							"name": "_amount",
							"type": "uint256"
						}
					],
					"name": "withdrawMoney",
					"outputs": [],
					"stateMutability": "nonpayable",
					"type": "function"
				},
				{
					"stateMutability": "payable",
					"type": "receive"
				}
			],
			"devdoc": {
				"kind": "dev",
				"methods": {
					"owner()": {
						"details": "Returns the address of the current owner."
					},
					"renounceOwnership()": {
						"details": "Leaves the contract without owner. It will not be possible to call `onlyOwner` functions anymore. Can only be called by the current owner. NOTE: Renouncing ownership will leave the contract without an owner, thereby removing any functionality that is only available to the owner."
					},
					"transferOwnership(address)": {
						"details": "Transfers ownership of the contract to a new account (`newOwner`). Can only be called by the current owner."
					}
				},
				"version": 1
			},
			"evm": {
				"assembly": "    /* \"contracts/Wallet.sol\":87:795  contract Wallet is SharedWallet {... */\n  mstore(0x40, 0x80)\n  callvalue\n  dup1\n  iszero\n  tag_1\n  jumpi\n  0x00\n  dup1\n  revert\ntag_1:\n  pop\n    /* \"@openzeppelin/contracts/access/Ownable.sol\":936:968  _transferOwnership(_msgSender()) */\n  tag_4\n    /* \"@openzeppelin/contracts/access/Ownable.sol\":955:967  _msgSender() */\n  tag_5\n    /* \"@openzeppelin/contracts/access/Ownable.sol\":955:965  _msgSender */\n  shl(0x20, tag_6)\n    /* \"@openzeppelin/contracts/access/Ownable.sol\":955:967  _msgSender() */\n  0x20\n  shr\n  jump\t// in\ntag_5:\n    /* \"@openzeppelin/contracts/access/Ownable.sol\":936:954  _transferOwnership */\n  shl(0x20, tag_7)\n    /* \"@openzeppelin/contracts/access/Ownable.sol\":936:968  _transferOwnership(_msgSender()) */\n  0x20\n  shr\n  jump\t// in\ntag_4:\n    /* \"contracts/Wallet.sol\":87:795  contract Wallet is SharedWallet {... */\n  jump(tag_8)\n    /* \"@openzeppelin/contracts/utils/Context.sol\":640:736  function _msgSender() internal view virtual returns (address) {... */\ntag_6:\n    /* \"@openzeppelin/contracts/utils/Context.sol\":693:700  address */\n  0x00\n    /* \"@openzeppelin/contracts/utils/Context.sol\":719:729  msg.sender */\n  caller\n    /* \"@openzeppelin/contracts/utils/Context.sol\":712:729  return msg.sender */\n  swap1\n  pop\n    /* \"@openzeppelin/contracts/utils/Context.sol\":640:736  function _msgSender() internal view virtual returns (address) {... */\n  swap1\n  jump\t// out\n    /* \"@openzeppelin/contracts/access/Ownable.sol\":2433:2620  function _transferOwnership(address newOwner) internal virtual {... */\ntag_7:\n    /* \"@openzeppelin/contracts/access/Ownable.sol\":2506:2522  address oldOwner */\n  0x00\n    /* \"@openzeppelin/contracts/access/Ownable.sol\":2525:2531  _owner */\n  dup1\n  0x00\n  swap1\n  sload\n  swap1\n  0x0100\n  exp\n  swap1\n  div\n  0xffffffffffffffffffffffffffffffffffffffff\n  and\n    /* \"@openzeppelin/contracts/access/Ownable.sol\":2506:2531  address oldOwner = _owner */\n  swap1\n  pop\n    /* \"@openzeppelin/contracts/access/Ownable.sol\":2550:2558  newOwner */\n  dup2\n    /* \"@openzeppelin/contracts/access/Ownable.sol\":2541:2547  _owner */\n  0x00\n  dup1\n    /* \"@openzeppelin/contracts/access/Ownable.sol\":2541:2558  _owner = newOwner */\n  0x0100\n  exp\n  dup2\n  sload\n  dup2\n  0xffffffffffffffffffffffffffffffffffffffff\n  mul\n  not\n  and\n  swap1\n  dup4\n  0xffffffffffffffffffffffffffffffffffffffff\n  and\n  mul\n  or\n  swap1\n  sstore\n  pop\n    /* \"@openzeppelin/contracts/access/Ownable.sol\":2604:2612  newOwner */\n  dup2\n    /* \"@openzeppelin/contracts/access/Ownable.sol\":2573:2613  OwnershipTransferred(oldOwner, newOwner) */\n  0xffffffffffffffffffffffffffffffffffffffff\n  and\n    /* \"@openzeppelin/contracts/access/Ownable.sol\":2594:2602  oldOwner */\n  dup2\n    /* \"@openzeppelin/contracts/access/Ownable.sol\":2573:2613  OwnershipTransferred(oldOwner, newOwner) */\n  0xffffffffffffffffffffffffffffffffffffffff\n  and\n  0x8be0079c531659141344cd1fd0a4f28419497f9722a3daafe3b4186f6b6457e0\n  mload(0x40)\n  mload(0x40)\n  dup1\n  swap2\n  sub\n  swap1\n  log3\n    /* \"@openzeppelin/contracts/access/Ownable.sol\":2496:2620  {... */\n  pop\n    /* \"@openzeppelin/contracts/access/Ownable.sol\":2433:2620  function _transferOwnership(address newOwner) internal virtual {... */\n  pop\n  jump\t// out\n    /* \"contracts/Wallet.sol\":87:795  contract Wallet is SharedWallet {... */\ntag_8:\n  dataSize(sub_0)\n  dup1\n  dataOffset(sub_0)\n  0x00\n  codecopy\n  0x00\n  return\nstop\n\nsub_0: assembly {\n        /* \"contracts/Wallet.sol\":87:795  contract Wallet is SharedWallet {... */\n      mstore(0x40, 0x80)\n      jumpi(tag_1, lt(calldatasize, 0x04))\n      shr(0xe0, calldataload(0x00))\n      dup1\n      0x54876921\n      gt\n      tag_10\n      jumpi\n      dup1\n      0x54876921\n      eq\n      tag_6\n      jumpi\n      dup1\n      0x715018a6\n      eq\n      tag_7\n      jumpi\n      dup1\n      0x8da5cb5b\n      eq\n      tag_8\n      jumpi\n      dup1\n      0xf2fde38b\n      eq\n      tag_9\n      jumpi\n      jump(tag_2)\n    tag_10:\n      dup1\n      0x08ae4b0c\n      eq\n      tag_3\n      jumpi\n      dup1\n      0x12065fe0\n      eq\n      tag_4\n      jumpi\n      dup1\n      0x17b3fe16\n      eq\n      tag_5\n      jumpi\n      jump(tag_2)\n    tag_1:\n      jumpi(tag_2, calldatasize)\n        /* \"contracts/Wallet.sol\":764:774  msg.sender */\n      caller\n        /* \"contracts/Wallet.sol\":750:786  MoneyReceived(msg.sender, msg.value) */\n      0xffffffffffffffffffffffffffffffffffffffff\n      and\n      0x27b15ed4cf832749ed39f33a64e4707ed60a761485e41ffec7343ecaddc0c02a\n        /* \"contracts/Wallet.sol\":776:785  msg.value */\n      callvalue\n        /* \"contracts/Wallet.sol\":750:786  MoneyReceived(msg.sender, msg.value) */\n      mload(0x40)\n      tag_13\n      swap2\n      swap1\n      tag_14\n      jump\t// in\n    tag_13:\n      mload(0x40)\n      dup1\n      swap2\n      sub\n      swap1\n      log2\n        /* \"contracts/Wallet.sol\":87:795  contract Wallet is SharedWallet {... */\n      stop\n    tag_2:\n      stop\n        /* \"contracts/SharedWallet.sol\":150:189  mapping(address => uint) public members */\n    tag_3:\n      callvalue\n      dup1\n      iszero\n      tag_17\n      jumpi\n      0x00\n      dup1\n      revert\n    tag_17:\n      pop\n      tag_18\n      0x04\n      dup1\n      calldatasize\n      sub\n      dup2\n      add\n      swap1\n      tag_19\n      swap2\n      swap1\n      tag_20\n      jump\t// in\n    tag_19:\n      tag_21\n      jump\t// in\n    tag_18:\n      mload(0x40)\n      tag_22\n      swap2\n      swap1\n      tag_14\n      jump\t// in\n    tag_22:\n      mload(0x40)\n      dup1\n      swap2\n      sub\n      swap1\n      return\n        /* \"contracts/Wallet.sol\":249:342  function getBalance() public view returns(uint) {... */\n    tag_4:\n      callvalue\n      dup1\n      iszero\n      tag_23\n      jumpi\n      0x00\n      dup1\n      revert\n    tag_23:\n      pop\n      tag_24\n      tag_25\n      jump\t// in\n    tag_24:\n      mload(0x40)\n      tag_26\n      swap2\n      swap1\n      tag_14\n      jump\t// in\n    tag_26:\n      mload(0x40)\n      dup1\n      swap2\n      sub\n      swap1\n      return\n        /* \"contracts/SharedWallet.sol\":436:535  function addLimit(uint _limit, address _member) external {... */\n    tag_5:\n      callvalue\n      dup1\n      iszero\n      tag_27\n      jumpi\n      0x00\n      dup1\n      revert\n    tag_27:\n      pop\n      tag_28\n      0x04\n      dup1\n      calldatasize\n      sub\n      dup2\n      add\n      swap1\n      tag_29\n      swap2\n      swap1\n      tag_30\n      jump\t// in\n    tag_29:\n      tag_31\n      jump\t// in\n    tag_28:\n      stop\n        /* \"contracts/Wallet.sol\":348:668  function withdrawMoney(uint _amount) external ownerLimits(_amount) {... */\n    tag_6:\n      callvalue\n      dup1\n      iszero\n      tag_32\n      jumpi\n      0x00\n      dup1\n      revert\n    tag_32:\n      pop\n      tag_33\n      0x04\n      dup1\n      calldatasize\n      sub\n      dup2\n      add\n      swap1\n      tag_34\n      swap2\n      swap1\n      tag_35\n      jump\t// in\n    tag_34:\n      tag_36\n      jump\t// in\n    tag_33:\n      stop\n        /* \"contracts/SharedWallet.sol\":654:756  function renounceOwnership() override public view onlyOwner {... */\n    tag_7:\n      callvalue\n      dup1\n      iszero\n      tag_37\n      jumpi\n      0x00\n      dup1\n      revert\n    tag_37:\n      pop\n      tag_38\n      tag_39\n      jump\t// in\n    tag_38:\n      stop\n        /* \"@openzeppelin/contracts/access/Ownable.sol\":1201:1286  function owner() public view virtual returns (address) {... */\n    tag_8:\n      callvalue\n      dup1\n      iszero\n      tag_40\n      jumpi\n      0x00\n      dup1\n      revert\n    tag_40:\n      pop\n      tag_41\n      tag_42\n      jump\t// in\n    tag_41:\n      mload(0x40)\n      tag_43\n      swap2\n      swap1\n      tag_44\n      jump\t// in\n    tag_43:\n      mload(0x40)\n      dup1\n      swap2\n      sub\n      swap1\n      return\n        /* \"@openzeppelin/contracts/access/Ownable.sol\":2081:2279  function transferOwnership(address newOwner) public virtual onlyOwner {... */\n    tag_9:\n      callvalue\n      dup1\n      iszero\n      tag_45\n      jumpi\n      0x00\n      dup1\n      revert\n    tag_45:\n      pop\n      tag_46\n      0x04\n      dup1\n      calldatasize\n      sub\n      dup2\n      add\n      swap1\n      tag_47\n      swap2\n      swap1\n      tag_20\n      jump\t// in\n    tag_47:\n      tag_48\n      jump\t// in\n    tag_46:\n      stop\n        /* \"contracts/SharedWallet.sol\":150:189  mapping(address => uint) public members */\n    tag_21:\n      mstore(0x20, 0x01)\n      dup1\n      0x00\n      mstore\n      keccak256(0x00, 0x40)\n      0x00\n      swap2\n      pop\n      swap1\n      pop\n      sload\n      dup2\n      jump\t// out\n        /* \"contracts/Wallet.sol\":249:342  function getBalance() public view returns(uint) {... */\n    tag_25:\n        /* \"contracts/Wallet.sol\":291:295  uint */\n      0x00\n        /* \"contracts/Wallet.sol\":314:335  address(this).balance */\n      selfbalance\n        /* \"contracts/Wallet.sol\":307:335  return address(this).balance */\n      swap1\n      pop\n        /* \"contracts/Wallet.sol\":249:342  function getBalance() public view returns(uint) {... */\n      swap1\n      jump\t// out\n        /* \"contracts/SharedWallet.sol\":436:535  function addLimit(uint _limit, address _member) external {... */\n    tag_31:\n        /* \"contracts/SharedWallet.sol\":522:528  _limit */\n      dup2\n        /* \"contracts/SharedWallet.sol\":503:510  members */\n      0x01\n        /* \"contracts/SharedWallet.sol\":503:519  members[_member] */\n      0x00\n        /* \"contracts/SharedWallet.sol\":511:518  _member */\n      dup4\n        /* \"contracts/SharedWallet.sol\":503:519  members[_member] */\n      0xffffffffffffffffffffffffffffffffffffffff\n      and\n      0xffffffffffffffffffffffffffffffffffffffff\n      and\n      dup2\n      mstore\n      0x20\n      add\n      swap1\n      dup2\n      mstore\n      0x20\n      add\n      0x00\n      keccak256\n        /* \"contracts/SharedWallet.sol\":503:528  members[_member] = _limit */\n      dup2\n      swap1\n      sstore\n      pop\n        /* \"contracts/SharedWallet.sol\":436:535  function addLimit(uint _limit, address _member) external {... */\n      pop\n      pop\n      jump\t// out\n        /* \"contracts/Wallet.sol\":348:668  function withdrawMoney(uint _amount) external ownerLimits(_amount) {... */\n    tag_36:\n        /* \"contracts/Wallet.sol\":406:413  _amount */\n      dup1\n        /* \"contracts/SharedWallet.sol\":249:258  isOwner() */\n      tag_52\n        /* \"contracts/SharedWallet.sol\":249:256  isOwner */\n      tag_53\n        /* \"contracts/SharedWallet.sol\":249:258  isOwner() */\n      jump\t// in\n    tag_52:\n        /* \"contracts/SharedWallet.sol\":249:292  isOwner() || members[msg.sender] >= _amount */\n      dup1\n      tag_54\n      jumpi\n      pop\n        /* \"contracts/SharedWallet.sol\":285:292  _amount */\n      dup1\n        /* \"contracts/SharedWallet.sol\":262:269  members */\n      0x01\n        /* \"contracts/SharedWallet.sol\":262:281  members[msg.sender] */\n      0x00\n        /* \"contracts/SharedWallet.sol\":270:280  msg.sender */\n      caller\n        /* \"contracts/SharedWallet.sol\":262:281  members[msg.sender] */\n      0xffffffffffffffffffffffffffffffffffffffff\n      and\n      0xffffffffffffffffffffffffffffffffffffffff\n      and\n      dup2\n      mstore\n      0x20\n      add\n      swap1\n      dup2\n      mstore\n      0x20\n      add\n      0x00\n      keccak256\n      sload\n        /* \"contracts/SharedWallet.sol\":262:292  members[msg.sender] >= _amount */\n      lt\n      iszero\n        /* \"contracts/SharedWallet.sol\":249:292  isOwner() || members[msg.sender] >= _amount */\n    tag_54:\n        /* \"contracts/SharedWallet.sol\":241:309  require(isOwner() || members[msg.sender] >= _amount, \"Not allowed!\") */\n      tag_55\n      jumpi\n      mload(0x40)\n      0x08c379a000000000000000000000000000000000000000000000000000000000\n      dup2\n      mstore\n      0x04\n      add\n      tag_56\n      swap1\n      tag_57\n      jump\t// in\n    tag_56:\n      mload(0x40)\n      dup1\n      swap2\n      sub\n      swap1\n      revert\n    tag_55:\n        /* \"contracts/Wallet.sol\":444:456  getBalance() */\n      tag_59\n        /* \"contracts/Wallet.sol\":444:454  getBalance */\n      tag_25\n        /* \"contracts/Wallet.sol\":444:456  getBalance() */\n      jump\t// in\n    tag_59:\n        /* \"contracts/Wallet.sol\":433:440  _amount */\n      dup3\n        /* \"contracts/Wallet.sol\":433:456  _amount <= getBalance() */\n      gt\n      iszero\n        /* \"contracts/Wallet.sol\":425:477  require(_amount <= getBalance(), \"Not enough funds\") */\n      tag_60\n      jumpi\n      mload(0x40)\n      0x08c379a000000000000000000000000000000000000000000000000000000000\n      dup2\n      mstore\n      0x04\n      add\n      tag_61\n      swap1\n      tag_62\n      jump\t// in\n    tag_61:\n      mload(0x40)\n      dup1\n      swap2\n      sub\n      swap1\n      revert\n    tag_60:\n        /* \"contracts/Wallet.sol\":491:500  isOwner() */\n      tag_63\n        /* \"contracts/Wallet.sol\":491:498  isOwner */\n      tag_53\n        /* \"contracts/Wallet.sol\":491:500  isOwner() */\n      jump\t// in\n    tag_63:\n        /* \"contracts/Wallet.sol\":487:563  if(!isOwner()) { ... */\n      tag_64\n      jumpi\n        /* \"contracts/Wallet.sol\":517:551  cutTheBalance(msg.sender, _amount) */\n      tag_65\n        /* \"contracts/Wallet.sol\":531:541  msg.sender */\n      caller\n        /* \"contracts/Wallet.sol\":543:550  _amount */\n      dup4\n        /* \"contracts/Wallet.sol\":517:530  cutTheBalance */\n      tag_66\n        /* \"contracts/Wallet.sol\":517:551  cutTheBalance(msg.sender, _amount) */\n      jump\t// in\n    tag_65:\n        /* \"contracts/Wallet.sol\":487:563  if(!isOwner()) { ... */\n    tag_64:\n        /* \"contracts/Wallet.sol\":581:591  msg.sender */\n      caller\n        /* \"contracts/Wallet.sol\":573:601  payable(msg.sender).transfer */\n      0xffffffffffffffffffffffffffffffffffffffff\n      and\n        /* \"contracts/Wallet.sol\":573:610  payable(msg.sender).transfer(_amount) */\n      0x08fc\n        /* \"contracts/Wallet.sol\":602:609  _amount */\n      dup4\n        /* \"contracts/Wallet.sol\":573:610  payable(msg.sender).transfer(_amount) */\n      swap1\n      dup2\n      iszero\n      mul\n      swap1\n      mload(0x40)\n      0x00\n      mload(0x40)\n      dup1\n      dup4\n      sub\n      dup2\n      dup6\n      dup9\n      dup9\n      call\n      swap4\n      pop\n      pop\n      pop\n      pop\n      iszero\n      dup1\n      iszero\n      tag_68\n      jumpi\n      returndatasize\n      0x00\n      dup1\n      returndatacopy\n      revert(0x00, returndatasize)\n    tag_68:\n      pop\n        /* \"contracts/Wallet.sol\":641:651  msg.sender */\n      caller\n        /* \"contracts/Wallet.sol\":626:661  MoneyWithdrawn(msg.sender, _amount) */\n      0xffffffffffffffffffffffffffffffffffffffff\n      and\n      0xe020566b3b7b0c11a72c9a01a70122b5bb1e70d24128480342bad5367fbf54e2\n        /* \"contracts/Wallet.sol\":653:660  _amount */\n      dup4\n        /* \"contracts/Wallet.sol\":626:661  MoneyWithdrawn(msg.sender, _amount) */\n      mload(0x40)\n      tag_69\n      swap2\n      swap1\n      tag_14\n      jump\t// in\n    tag_69:\n      mload(0x40)\n      dup1\n      swap2\n      sub\n      swap1\n      log2\n        /* \"contracts/Wallet.sol\":348:668  function withdrawMoney(uint _amount) external ownerLimits(_amount) {... */\n      pop\n      pop\n      jump\t// out\n        /* \"contracts/SharedWallet.sol\":654:756  function renounceOwnership() override public view onlyOwner {... */\n    tag_39:\n        /* \"@openzeppelin/contracts/access/Ownable.sol\":1094:1107  _checkOwner() */\n      tag_71\n        /* \"@openzeppelin/contracts/access/Ownable.sol\":1094:1105  _checkOwner */\n      tag_72\n        /* \"@openzeppelin/contracts/access/Ownable.sol\":1094:1107  _checkOwner() */\n      jump\t// in\n    tag_71:\n        /* \"contracts/SharedWallet.sol\":724:749  revert(\"Can't renounce!\") */\n      mload(0x40)\n      0x08c379a000000000000000000000000000000000000000000000000000000000\n      dup2\n      mstore\n      0x04\n      add\n      tag_74\n      swap1\n      tag_75\n      jump\t// in\n    tag_74:\n      mload(0x40)\n      dup1\n      swap2\n      sub\n      swap1\n      revert\n        /* \"@openzeppelin/contracts/access/Ownable.sol\":1201:1286  function owner() public view virtual returns (address) {... */\n    tag_42:\n        /* \"@openzeppelin/contracts/access/Ownable.sol\":1247:1254  address */\n      0x00\n        /* \"@openzeppelin/contracts/access/Ownable.sol\":1273:1279  _owner */\n      dup1\n      0x00\n      swap1\n      sload\n      swap1\n      0x0100\n      exp\n      swap1\n      div\n      0xffffffffffffffffffffffffffffffffffffffff\n      and\n        /* \"@openzeppelin/contracts/access/Ownable.sol\":1266:1279  return _owner */\n      swap1\n      pop\n        /* \"@openzeppelin/contracts/access/Ownable.sol\":1201:1286  function owner() public view virtual returns (address) {... */\n      swap1\n      jump\t// out\n        /* \"@openzeppelin/contracts/access/Ownable.sol\":2081:2279  function transferOwnership(address newOwner) public virtual onlyOwner {... */\n    tag_48:\n        /* \"@openzeppelin/contracts/access/Ownable.sol\":1094:1107  _checkOwner() */\n      tag_78\n        /* \"@openzeppelin/contracts/access/Ownable.sol\":1094:1105  _checkOwner */\n      tag_72\n        /* \"@openzeppelin/contracts/access/Ownable.sol\":1094:1107  _checkOwner() */\n      jump\t// in\n    tag_78:\n        /* \"@openzeppelin/contracts/access/Ownable.sol\":2189:2190  0 */\n      0x00\n        /* \"@openzeppelin/contracts/access/Ownable.sol\":2169:2191  newOwner != address(0) */\n      0xffffffffffffffffffffffffffffffffffffffff\n      and\n        /* \"@openzeppelin/contracts/access/Ownable.sol\":2169:2177  newOwner */\n      dup2\n        /* \"@openzeppelin/contracts/access/Ownable.sol\":2169:2191  newOwner != address(0) */\n      0xffffffffffffffffffffffffffffffffffffffff\n      and\n      eq\n      iszero\n        /* \"@openzeppelin/contracts/access/Ownable.sol\":2161:2234  require(newOwner != address(0), \"Ownable: new owner is the zero address\") */\n      tag_80\n      jumpi\n      mload(0x40)\n      0x08c379a000000000000000000000000000000000000000000000000000000000\n      dup2\n      mstore\n      0x04\n      add\n      tag_81\n      swap1\n      tag_82\n      jump\t// in\n    tag_81:\n      mload(0x40)\n      dup1\n      swap2\n      sub\n      swap1\n      revert\n    tag_80:\n        /* \"@openzeppelin/contracts/access/Ownable.sol\":2244:2272  _transferOwnership(newOwner) */\n      tag_83\n        /* \"@openzeppelin/contracts/access/Ownable.sol\":2263:2271  newOwner */\n      dup2\n        /* \"@openzeppelin/contracts/access/Ownable.sol\":2244:2262  _transferOwnership */\n      tag_84\n        /* \"@openzeppelin/contracts/access/Ownable.sol\":2244:2272  _transferOwnership(newOwner) */\n      jump\t// in\n    tag_83:\n        /* \"@openzeppelin/contracts/access/Ownable.sol\":2081:2279  function transferOwnership(address newOwner) public virtual onlyOwner {... */\n      pop\n      jump\t// out\n        /* \"contracts/SharedWallet.sol\":333:425  function isOwner() internal view returns(bool) {... */\n    tag_53:\n        /* \"contracts/SharedWallet.sol\":374:378  bool */\n      0x00\n        /* \"contracts/SharedWallet.sol\":408:418  msg.sender */\n      caller\n        /* \"contracts/SharedWallet.sol\":397:418  owner() == msg.sender */\n      0xffffffffffffffffffffffffffffffffffffffff\n      and\n        /* \"contracts/SharedWallet.sol\":397:404  owner() */\n      tag_86\n        /* \"contracts/SharedWallet.sol\":397:402  owner */\n      tag_42\n        /* \"contracts/SharedWallet.sol\":397:404  owner() */\n      jump\t// in\n    tag_86:\n        /* \"contracts/SharedWallet.sol\":397:418  owner() == msg.sender */\n      0xffffffffffffffffffffffffffffffffffffffff\n      and\n      eq\n        /* \"contracts/SharedWallet.sol\":390:418  return owner() == msg.sender */\n      swap1\n      pop\n        /* \"contracts/SharedWallet.sol\":333:425  function isOwner() internal view returns(bool) {... */\n      swap1\n      jump\t// out\n        /* \"contracts/SharedWallet.sol\":541:648  function cutTheBalance(address _member, uint _amount) internal {... */\n    tag_66:\n        /* \"contracts/SharedWallet.sol\":634:641  _amount */\n      dup1\n        /* \"contracts/SharedWallet.sol\":614:621  members */\n      0x01\n        /* \"contracts/SharedWallet.sol\":614:630  members[_member] */\n      0x00\n        /* \"contracts/SharedWallet.sol\":622:629  _member */\n      dup5\n        /* \"contracts/SharedWallet.sol\":614:630  members[_member] */\n      0xffffffffffffffffffffffffffffffffffffffff\n      and\n      0xffffffffffffffffffffffffffffffffffffffff\n      and\n      dup2\n      mstore\n      0x20\n      add\n      swap1\n      dup2\n      mstore\n      0x20\n      add\n      0x00\n      keccak256\n      0x00\n        /* \"contracts/SharedWallet.sol\":614:641  members[_member] -= _amount */\n      dup3\n      dup3\n      sload\n      tag_88\n      swap2\n      swap1\n      tag_89\n      jump\t// in\n    tag_88:\n      swap3\n      pop\n      pop\n      dup2\n      swap1\n      sstore\n      pop\n        /* \"contracts/SharedWallet.sol\":541:648  function cutTheBalance(address _member, uint _amount) internal {... */\n      pop\n      pop\n      jump\t// out\n        /* \"@openzeppelin/contracts/access/Ownable.sol\":1359:1489  function _checkOwner() internal view virtual {... */\n    tag_72:\n        /* \"@openzeppelin/contracts/access/Ownable.sol\":1433:1445  _msgSender() */\n      tag_91\n        /* \"@openzeppelin/contracts/access/Ownable.sol\":1433:1443  _msgSender */\n      tag_92\n        /* \"@openzeppelin/contracts/access/Ownable.sol\":1433:1445  _msgSender() */\n      jump\t// in\n    tag_91:\n        /* \"@openzeppelin/contracts/access/Ownable.sol\":1422:1445  owner() == _msgSender() */\n      0xffffffffffffffffffffffffffffffffffffffff\n      and\n        /* \"@openzeppelin/contracts/access/Ownable.sol\":1422:1429  owner() */\n      tag_93\n        /* \"@openzeppelin/contracts/access/Ownable.sol\":1422:1427  owner */\n      tag_42\n        /* \"@openzeppelin/contracts/access/Ownable.sol\":1422:1429  owner() */\n      jump\t// in\n    tag_93:\n        /* \"@openzeppelin/contracts/access/Ownable.sol\":1422:1445  owner() == _msgSender() */\n      0xffffffffffffffffffffffffffffffffffffffff\n      and\n      eq\n        /* \"@openzeppelin/contracts/access/Ownable.sol\":1414:1482  require(owner() == _msgSender(), \"Ownable: caller is not the owner\") */\n      tag_94\n      jumpi\n      mload(0x40)\n      0x08c379a000000000000000000000000000000000000000000000000000000000\n      dup2\n      mstore\n      0x04\n      add\n      tag_95\n      swap1\n      tag_96\n      jump\t// in\n    tag_95:\n      mload(0x40)\n      dup1\n      swap2\n      sub\n      swap1\n      revert\n    tag_94:\n        /* \"@openzeppelin/contracts/access/Ownable.sol\":1359:1489  function _checkOwner() internal view virtual {... */\n      jump\t// out\n        /* \"@openzeppelin/contracts/access/Ownable.sol\":2433:2620  function _transferOwnership(address newOwner) internal virtual {... */\n    tag_84:\n        /* \"@openzeppelin/contracts/access/Ownable.sol\":2506:2522  address oldOwner */\n      0x00\n        /* \"@openzeppelin/contracts/access/Ownable.sol\":2525:2531  _owner */\n      dup1\n      0x00\n      swap1\n      sload\n      swap1\n      0x0100\n      exp\n      swap1\n      div\n      0xffffffffffffffffffffffffffffffffffffffff\n      and\n        /* \"@openzeppelin/contracts/access/Ownable.sol\":2506:2531  address oldOwner = _owner */\n      swap1\n      pop\n        /* \"@openzeppelin/contracts/access/Ownable.sol\":2550:2558  newOwner */\n      dup2\n        /* \"@openzeppelin/contracts/access/Ownable.sol\":2541:2547  _owner */\n      0x00\n      dup1\n        /* \"@openzeppelin/contracts/access/Ownable.sol\":2541:2558  _owner = newOwner */\n      0x0100\n      exp\n      dup2\n      sload\n      dup2\n      0xffffffffffffffffffffffffffffffffffffffff\n      mul\n      not\n      and\n      swap1\n      dup4\n      0xffffffffffffffffffffffffffffffffffffffff\n      and\n      mul\n      or\n      swap1\n      sstore\n      pop\n        /* \"@openzeppelin/contracts/access/Ownable.sol\":2604:2612  newOwner */\n      dup2\n        /* \"@openzeppelin/contracts/access/Ownable.sol\":2573:2613  OwnershipTransferred(oldOwner, newOwner) */\n      0xffffffffffffffffffffffffffffffffffffffff\n      and\n        /* \"@openzeppelin/contracts/access/Ownable.sol\":2594:2602  oldOwner */\n      dup2\n        /* \"@openzeppelin/contracts/access/Ownable.sol\":2573:2613  OwnershipTransferred(oldOwner, newOwner) */\n      0xffffffffffffffffffffffffffffffffffffffff\n      and\n      0x8be0079c531659141344cd1fd0a4f28419497f9722a3daafe3b4186f6b6457e0\n      mload(0x40)\n      mload(0x40)\n      dup1\n      swap2\n      sub\n      swap1\n      log3\n        /* \"@openzeppelin/contracts/access/Ownable.sol\":2496:2620  {... */\n      pop\n        /* \"@openzeppelin/contracts/access/Ownable.sol\":2433:2620  function _transferOwnership(address newOwner) internal virtual {... */\n      pop\n      jump\t// out\n        /* \"@openzeppelin/contracts/utils/Context.sol\":640:736  function _msgSender() internal view virtual returns (address) {... */\n    tag_92:\n        /* \"@openzeppelin/contracts/utils/Context.sol\":693:700  address */\n      0x00\n        /* \"@openzeppelin/contracts/utils/Context.sol\":719:729  msg.sender */\n      caller\n        /* \"@openzeppelin/contracts/utils/Context.sol\":712:729  return msg.sender */\n      swap1\n      pop\n        /* \"@openzeppelin/contracts/utils/Context.sol\":640:736  function _msgSender() internal view virtual returns (address) {... */\n      swap1\n      jump\t// out\n        /* \"#utility.yul\":7:146   */\n    tag_100:\n        /* \"#utility.yul\":53:58   */\n      0x00\n        /* \"#utility.yul\":91:97   */\n      dup2\n        /* \"#utility.yul\":78:98   */\n      calldataload\n        /* \"#utility.yul\":69:98   */\n      swap1\n      pop\n        /* \"#utility.yul\":107:140   */\n      tag_102\n        /* \"#utility.yul\":134:139   */\n      dup2\n        /* \"#utility.yul\":107:140   */\n      tag_103\n      jump\t// in\n    tag_102:\n        /* \"#utility.yul\":7:146   */\n      swap3\n      swap2\n      pop\n      pop\n      jump\t// out\n        /* \"#utility.yul\":152:291   */\n    tag_104:\n        /* \"#utility.yul\":198:203   */\n      0x00\n        /* \"#utility.yul\":236:242   */\n      dup2\n        /* \"#utility.yul\":223:243   */\n      calldataload\n        /* \"#utility.yul\":214:243   */\n      swap1\n      pop\n        /* \"#utility.yul\":252:285   */\n      tag_106\n        /* \"#utility.yul\":279:284   */\n      dup2\n        /* \"#utility.yul\":252:285   */\n      tag_107\n      jump\t// in\n    tag_106:\n        /* \"#utility.yul\":152:291   */\n      swap3\n      swap2\n      pop\n      pop\n      jump\t// out\n        /* \"#utility.yul\":297:626   */\n    tag_20:\n        /* \"#utility.yul\":356:362   */\n      0x00\n        /* \"#utility.yul\":405:407   */\n      0x20\n        /* \"#utility.yul\":393:402   */\n      dup3\n        /* \"#utility.yul\":384:391   */\n      dup5\n        /* \"#utility.yul\":380:403   */\n      sub\n        /* \"#utility.yul\":376:408   */\n      slt\n        /* \"#utility.yul\":373:492   */\n      iszero\n      tag_109\n      jumpi\n        /* \"#utility.yul\":411:490   */\n      tag_110\n      tag_111\n      jump\t// in\n    tag_110:\n        /* \"#utility.yul\":373:492   */\n    tag_109:\n        /* \"#utility.yul\":531:532   */\n      0x00\n        /* \"#utility.yul\":556:609   */\n      tag_112\n        /* \"#utility.yul\":601:608   */\n      dup5\n        /* \"#utility.yul\":592:598   */\n      dup3\n        /* \"#utility.yul\":581:590   */\n      dup6\n        /* \"#utility.yul\":577:599   */\n      add\n        /* \"#utility.yul\":556:609   */\n      tag_100\n      jump\t// in\n    tag_112:\n        /* \"#utility.yul\":546:609   */\n      swap2\n      pop\n        /* \"#utility.yul\":502:619   */\n      pop\n        /* \"#utility.yul\":297:626   */\n      swap3\n      swap2\n      pop\n      pop\n      jump\t// out\n        /* \"#utility.yul\":632:961   */\n    tag_35:\n        /* \"#utility.yul\":691:697   */\n      0x00\n        /* \"#utility.yul\":740:742   */\n      0x20\n        /* \"#utility.yul\":728:737   */\n      dup3\n        /* \"#utility.yul\":719:726   */\n      dup5\n        /* \"#utility.yul\":715:738   */\n      sub\n        /* \"#utility.yul\":711:743   */\n      slt\n        /* \"#utility.yul\":708:827   */\n      iszero\n      tag_114\n      jumpi\n        /* \"#utility.yul\":746:825   */\n      tag_115\n      tag_111\n      jump\t// in\n    tag_115:\n        /* \"#utility.yul\":708:827   */\n    tag_114:\n        /* \"#utility.yul\":866:867   */\n      0x00\n        /* \"#utility.yul\":891:944   */\n      tag_116\n        /* \"#utility.yul\":936:943   */\n      dup5\n        /* \"#utility.yul\":927:933   */\n      dup3\n        /* \"#utility.yul\":916:925   */\n      dup6\n        /* \"#utility.yul\":912:934   */\n      add\n        /* \"#utility.yul\":891:944   */\n      tag_104\n      jump\t// in\n    tag_116:\n        /* \"#utility.yul\":881:944   */\n      swap2\n      pop\n        /* \"#utility.yul\":837:954   */\n      pop\n        /* \"#utility.yul\":632:961   */\n      swap3\n      swap2\n      pop\n      pop\n      jump\t// out\n        /* \"#utility.yul\":967:1441   */\n    tag_30:\n        /* \"#utility.yul\":1035:1041   */\n      0x00\n        /* \"#utility.yul\":1043:1049   */\n      dup1\n        /* \"#utility.yul\":1092:1094   */\n      0x40\n        /* \"#utility.yul\":1080:1089   */\n      dup4\n        /* \"#utility.yul\":1071:1078   */\n      dup6\n        /* \"#utility.yul\":1067:1090   */\n      sub\n        /* \"#utility.yul\":1063:1095   */\n      slt\n        /* \"#utility.yul\":1060:1179   */\n      iszero\n      tag_118\n      jumpi\n        /* \"#utility.yul\":1098:1177   */\n      tag_119\n      tag_111\n      jump\t// in\n    tag_119:\n        /* \"#utility.yul\":1060:1179   */\n    tag_118:\n        /* \"#utility.yul\":1218:1219   */\n      0x00\n        /* \"#utility.yul\":1243:1296   */\n      tag_120\n        /* \"#utility.yul\":1288:1295   */\n      dup6\n        /* \"#utility.yul\":1279:1285   */\n      dup3\n        /* \"#utility.yul\":1268:1277   */\n      dup7\n        /* \"#utility.yul\":1264:1286   */\n      add\n        /* \"#utility.yul\":1243:1296   */\n      tag_104\n      jump\t// in\n    tag_120:\n        /* \"#utility.yul\":1233:1296   */\n      swap3\n      pop\n        /* \"#utility.yul\":1189:1306   */\n      pop\n        /* \"#utility.yul\":1345:1347   */\n      0x20\n        /* \"#utility.yul\":1371:1424   */\n      tag_121\n        /* \"#utility.yul\":1416:1423   */\n      dup6\n        /* \"#utility.yul\":1407:1413   */\n      dup3\n        /* \"#utility.yul\":1396:1405   */\n      dup7\n        /* \"#utility.yul\":1392:1414   */\n      add\n        /* \"#utility.yul\":1371:1424   */\n      tag_100\n      jump\t// in\n    tag_121:\n        /* \"#utility.yul\":1361:1424   */\n      swap2\n      pop\n        /* \"#utility.yul\":1316:1434   */\n      pop\n        /* \"#utility.yul\":967:1441   */\n      swap3\n      pop\n      swap3\n      swap1\n      pop\n      jump\t// out\n        /* \"#utility.yul\":1447:1565   */\n    tag_122:\n        /* \"#utility.yul\":1534:1558   */\n      tag_124\n        /* \"#utility.yul\":1552:1557   */\n      dup2\n        /* \"#utility.yul\":1534:1558   */\n      tag_125\n      jump\t// in\n    tag_124:\n        /* \"#utility.yul\":1529:1532   */\n      dup3\n        /* \"#utility.yul\":1522:1559   */\n      mstore\n        /* \"#utility.yul\":1447:1565   */\n      pop\n      pop\n      jump\t// out\n        /* \"#utility.yul\":1571:1937   */\n    tag_126:\n        /* \"#utility.yul\":1713:1716   */\n      0x00\n        /* \"#utility.yul\":1734:1801   */\n      tag_128\n        /* \"#utility.yul\":1798:1800   */\n      0x26\n        /* \"#utility.yul\":1793:1796   */\n      dup4\n        /* \"#utility.yul\":1734:1801   */\n      tag_129\n      jump\t// in\n    tag_128:\n        /* \"#utility.yul\":1727:1801   */\n      swap2\n      pop\n        /* \"#utility.yul\":1810:1903   */\n      tag_130\n        /* \"#utility.yul\":1899:1902   */\n      dup3\n        /* \"#utility.yul\":1810:1903   */\n      tag_131\n      jump\t// in\n    tag_130:\n        /* \"#utility.yul\":1928:1930   */\n      0x40\n        /* \"#utility.yul\":1923:1926   */\n      dup3\n        /* \"#utility.yul\":1919:1931   */\n      add\n        /* \"#utility.yul\":1912:1931   */\n      swap1\n      pop\n        /* \"#utility.yul\":1571:1937   */\n      swap2\n      swap1\n      pop\n      jump\t// out\n        /* \"#utility.yul\":1943:2309   */\n    tag_132:\n        /* \"#utility.yul\":2085:2088   */\n      0x00\n        /* \"#utility.yul\":2106:2173   */\n      tag_134\n        /* \"#utility.yul\":2170:2172   */\n      0x10\n        /* \"#utility.yul\":2165:2168   */\n      dup4\n        /* \"#utility.yul\":2106:2173   */\n      tag_129\n      jump\t// in\n    tag_134:\n        /* \"#utility.yul\":2099:2173   */\n      swap2\n      pop\n        /* \"#utility.yul\":2182:2275   */\n      tag_135\n        /* \"#utility.yul\":2271:2274   */\n      dup3\n        /* \"#utility.yul\":2182:2275   */\n      tag_136\n      jump\t// in\n    tag_135:\n        /* \"#utility.yul\":2300:2302   */\n      0x20\n        /* \"#utility.yul\":2295:2298   */\n      dup3\n        /* \"#utility.yul\":2291:2303   */\n      add\n        /* \"#utility.yul\":2284:2303   */\n      swap1\n      pop\n        /* \"#utility.yul\":1943:2309   */\n      swap2\n      swap1\n      pop\n      jump\t// out\n        /* \"#utility.yul\":2315:2681   */\n    tag_137:\n        /* \"#utility.yul\":2457:2460   */\n      0x00\n        /* \"#utility.yul\":2478:2545   */\n      tag_139\n        /* \"#utility.yul\":2542:2544   */\n      0x0f\n        /* \"#utility.yul\":2537:2540   */\n      dup4\n        /* \"#utility.yul\":2478:2545   */\n      tag_129\n      jump\t// in\n    tag_139:\n        /* \"#utility.yul\":2471:2545   */\n      swap2\n      pop\n        /* \"#utility.yul\":2554:2647   */\n      tag_140\n        /* \"#utility.yul\":2643:2646   */\n      dup3\n        /* \"#utility.yul\":2554:2647   */\n      tag_141\n      jump\t// in\n    tag_140:\n        /* \"#utility.yul\":2672:2674   */\n      0x20\n        /* \"#utility.yul\":2667:2670   */\n      dup3\n        /* \"#utility.yul\":2663:2675   */\n      add\n        /* \"#utility.yul\":2656:2675   */\n      swap1\n      pop\n        /* \"#utility.yul\":2315:2681   */\n      swap2\n      swap1\n      pop\n      jump\t// out\n        /* \"#utility.yul\":2687:3053   */\n    tag_142:\n        /* \"#utility.yul\":2829:2832   */\n      0x00\n        /* \"#utility.yul\":2850:2917   */\n      tag_144\n        /* \"#utility.yul\":2914:2916   */\n      0x0c\n        /* \"#utility.yul\":2909:2912   */\n      dup4\n        /* \"#utility.yul\":2850:2917   */\n      tag_129\n      jump\t// in\n    tag_144:\n        /* \"#utility.yul\":2843:2917   */\n      swap2\n      pop\n        /* \"#utility.yul\":2926:3019   */\n      tag_145\n        /* \"#utility.yul\":3015:3018   */\n      dup3\n        /* \"#utility.yul\":2926:3019   */\n      tag_146\n      jump\t// in\n    tag_145:\n        /* \"#utility.yul\":3044:3046   */\n      0x20\n        /* \"#utility.yul\":3039:3042   */\n      dup3\n        /* \"#utility.yul\":3035:3047   */\n      add\n        /* \"#utility.yul\":3028:3047   */\n      swap1\n      pop\n        /* \"#utility.yul\":2687:3053   */\n      swap2\n      swap1\n      pop\n      jump\t// out\n        /* \"#utility.yul\":3059:3425   */\n    tag_147:\n        /* \"#utility.yul\":3201:3204   */\n      0x00\n        /* \"#utility.yul\":3222:3289   */\n      tag_149\n        /* \"#utility.yul\":3286:3288   */\n      0x20\n        /* \"#utility.yul\":3281:3284   */\n      dup4\n        /* \"#utility.yul\":3222:3289   */\n      tag_129\n      jump\t// in\n    tag_149:\n        /* \"#utility.yul\":3215:3289   */\n      swap2\n      pop\n        /* \"#utility.yul\":3298:3391   */\n      tag_150\n        /* \"#utility.yul\":3387:3390   */\n      dup3\n        /* \"#utility.yul\":3298:3391   */\n      tag_151\n      jump\t// in\n    tag_150:\n        /* \"#utility.yul\":3416:3418   */\n      0x20\n        /* \"#utility.yul\":3411:3414   */\n      dup3\n        /* \"#utility.yul\":3407:3419   */\n      add\n        /* \"#utility.yul\":3400:3419   */\n      swap1\n      pop\n        /* \"#utility.yul\":3059:3425   */\n      swap2\n      swap1\n      pop\n      jump\t// out\n        /* \"#utility.yul\":3431:3549   */\n    tag_152:\n        /* \"#utility.yul\":3518:3542   */\n      tag_154\n        /* \"#utility.yul\":3536:3541   */\n      dup2\n        /* \"#utility.yul\":3518:3542   */\n      tag_155\n      jump\t// in\n    tag_154:\n        /* \"#utility.yul\":3513:3516   */\n      dup3\n        /* \"#utility.yul\":3506:3543   */\n      mstore\n        /* \"#utility.yul\":3431:3549   */\n      pop\n      pop\n      jump\t// out\n        /* \"#utility.yul\":3555:3777   */\n    tag_44:\n        /* \"#utility.yul\":3648:3652   */\n      0x00\n        /* \"#utility.yul\":3686:3688   */\n      0x20\n        /* \"#utility.yul\":3675:3684   */\n      dup3\n        /* \"#utility.yul\":3671:3689   */\n      add\n        /* \"#utility.yul\":3663:3689   */\n      swap1\n      pop\n        /* \"#utility.yul\":3699:3770   */\n      tag_157\n        /* \"#utility.yul\":3767:3768   */\n      0x00\n        /* \"#utility.yul\":3756:3765   */\n      dup4\n        /* \"#utility.yul\":3752:3769   */\n      add\n        /* \"#utility.yul\":3743:3749   */\n      dup5\n        /* \"#utility.yul\":3699:3770   */\n      tag_122\n      jump\t// in\n    tag_157:\n        /* \"#utility.yul\":3555:3777   */\n      swap3\n      swap2\n      pop\n      pop\n      jump\t// out\n        /* \"#utility.yul\":3783:4202   */\n    tag_82:\n        /* \"#utility.yul\":3949:3953   */\n      0x00\n        /* \"#utility.yul\":3987:3989   */\n      0x20\n        /* \"#utility.yul\":3976:3985   */\n      dup3\n        /* \"#utility.yul\":3972:3990   */\n      add\n        /* \"#utility.yul\":3964:3990   */\n      swap1\n      pop\n        /* \"#utility.yul\":4036:4045   */\n      dup2\n        /* \"#utility.yul\":4030:4034   */\n      dup2\n        /* \"#utility.yul\":4026:4046   */\n      sub\n        /* \"#utility.yul\":4022:4023   */\n      0x00\n        /* \"#utility.yul\":4011:4020   */\n      dup4\n        /* \"#utility.yul\":4007:4024   */\n      add\n        /* \"#utility.yul\":4000:4047   */\n      mstore\n        /* \"#utility.yul\":4064:4195   */\n      tag_159\n        /* \"#utility.yul\":4190:4194   */\n      dup2\n        /* \"#utility.yul\":4064:4195   */\n      tag_126\n      jump\t// in\n    tag_159:\n        /* \"#utility.yul\":4056:4195   */\n      swap1\n      pop\n        /* \"#utility.yul\":3783:4202   */\n      swap2\n      swap1\n      pop\n      jump\t// out\n        /* \"#utility.yul\":4208:4627   */\n    tag_62:\n        /* \"#utility.yul\":4374:4378   */\n      0x00\n        /* \"#utility.yul\":4412:4414   */\n      0x20\n        /* \"#utility.yul\":4401:4410   */\n      dup3\n        /* \"#utility.yul\":4397:4415   */\n      add\n        /* \"#utility.yul\":4389:4415   */\n      swap1\n      pop\n        /* \"#utility.yul\":4461:4470   */\n      dup2\n        /* \"#utility.yul\":4455:4459   */\n      dup2\n        /* \"#utility.yul\":4451:4471   */\n      sub\n        /* \"#utility.yul\":4447:4448   */\n      0x00\n        /* \"#utility.yul\":4436:4445   */\n      dup4\n        /* \"#utility.yul\":4432:4449   */\n      add\n        /* \"#utility.yul\":4425:4472   */\n      mstore\n        /* \"#utility.yul\":4489:4620   */\n      tag_161\n        /* \"#utility.yul\":4615:4619   */\n      dup2\n        /* \"#utility.yul\":4489:4620   */\n      tag_132\n      jump\t// in\n    tag_161:\n        /* \"#utility.yul\":4481:4620   */\n      swap1\n      pop\n        /* \"#utility.yul\":4208:4627   */\n      swap2\n      swap1\n      pop\n      jump\t// out\n        /* \"#utility.yul\":4633:5052   */\n    tag_75:\n        /* \"#utility.yul\":4799:4803   */\n      0x00\n        /* \"#utility.yul\":4837:4839   */\n      0x20\n        /* \"#utility.yul\":4826:4835   */\n      dup3\n        /* \"#utility.yul\":4822:4840   */\n      add\n        /* \"#utility.yul\":4814:4840   */\n      swap1\n      pop\n        /* \"#utility.yul\":4886:4895   */\n      dup2\n        /* \"#utility.yul\":4880:4884   */\n      dup2\n        /* \"#utility.yul\":4876:4896   */\n      sub\n        /* \"#utility.yul\":4872:4873   */\n      0x00\n        /* \"#utility.yul\":4861:4870   */\n      dup4\n        /* \"#utility.yul\":4857:4874   */\n      add\n        /* \"#utility.yul\":4850:4897   */\n      mstore\n        /* \"#utility.yul\":4914:5045   */\n      tag_163\n        /* \"#utility.yul\":5040:5044   */\n      dup2\n        /* \"#utility.yul\":4914:5045   */\n      tag_137\n      jump\t// in\n    tag_163:\n        /* \"#utility.yul\":4906:5045   */\n      swap1\n      pop\n        /* \"#utility.yul\":4633:5052   */\n      swap2\n      swap1\n      pop\n      jump\t// out\n        /* \"#utility.yul\":5058:5477   */\n    tag_57:\n        /* \"#utility.yul\":5224:5228   */\n      0x00\n        /* \"#utility.yul\":5262:5264   */\n      0x20\n        /* \"#utility.yul\":5251:5260   */\n      dup3\n        /* \"#utility.yul\":5247:5265   */\n      add\n        /* \"#utility.yul\":5239:5265   */\n      swap1\n      pop\n        /* \"#utility.yul\":5311:5320   */\n      dup2\n        /* \"#utility.yul\":5305:5309   */\n      dup2\n        /* \"#utility.yul\":5301:5321   */\n      sub\n        /* \"#utility.yul\":5297:5298   */\n      0x00\n        /* \"#utility.yul\":5286:5295   */\n      dup4\n        /* \"#utility.yul\":5282:5299   */\n      add\n        /* \"#utility.yul\":5275:5322   */\n      mstore\n        /* \"#utility.yul\":5339:5470   */\n      tag_165\n        /* \"#utility.yul\":5465:5469   */\n      dup2\n        /* \"#utility.yul\":5339:5470   */\n      tag_142\n      jump\t// in\n    tag_165:\n        /* \"#utility.yul\":5331:5470   */\n      swap1\n      pop\n        /* \"#utility.yul\":5058:5477   */\n      swap2\n      swap1\n      pop\n      jump\t// out\n        /* \"#utility.yul\":5483:5902   */\n    tag_96:\n        /* \"#utility.yul\":5649:5653   */\n      0x00\n        /* \"#utility.yul\":5687:5689   */\n      0x20\n        /* \"#utility.yul\":5676:5685   */\n      dup3\n        /* \"#utility.yul\":5672:5690   */\n      add\n        /* \"#utility.yul\":5664:5690   */\n      swap1\n      pop\n        /* \"#utility.yul\":5736:5745   */\n      dup2\n        /* \"#utility.yul\":5730:5734   */\n      dup2\n        /* \"#utility.yul\":5726:5746   */\n      sub\n        /* \"#utility.yul\":5722:5723   */\n      0x00\n        /* \"#utility.yul\":5711:5720   */\n      dup4\n        /* \"#utility.yul\":5707:5724   */\n      add\n        /* \"#utility.yul\":5700:5747   */\n      mstore\n        /* \"#utility.yul\":5764:5895   */\n      tag_167\n        /* \"#utility.yul\":5890:5894   */\n      dup2\n        /* \"#utility.yul\":5764:5895   */\n      tag_147\n      jump\t// in\n    tag_167:\n        /* \"#utility.yul\":5756:5895   */\n      swap1\n      pop\n        /* \"#utility.yul\":5483:5902   */\n      swap2\n      swap1\n      pop\n      jump\t// out\n        /* \"#utility.yul\":5908:6130   */\n    tag_14:\n        /* \"#utility.yul\":6001:6005   */\n      0x00\n        /* \"#utility.yul\":6039:6041   */\n      0x20\n        /* \"#utility.yul\":6028:6037   */\n      dup3\n        /* \"#utility.yul\":6024:6042   */\n      add\n        /* \"#utility.yul\":6016:6042   */\n      swap1\n      pop\n        /* \"#utility.yul\":6052:6123   */\n      tag_169\n        /* \"#utility.yul\":6120:6121   */\n      0x00\n        /* \"#utility.yul\":6109:6118   */\n      dup4\n        /* \"#utility.yul\":6105:6122   */\n      add\n        /* \"#utility.yul\":6096:6102   */\n      dup5\n        /* \"#utility.yul\":6052:6123   */\n      tag_152\n      jump\t// in\n    tag_169:\n        /* \"#utility.yul\":5908:6130   */\n      swap3\n      swap2\n      pop\n      pop\n      jump\t// out\n        /* \"#utility.yul\":6217:6386   */\n    tag_129:\n        /* \"#utility.yul\":6301:6312   */\n      0x00\n        /* \"#utility.yul\":6335:6341   */\n      dup3\n        /* \"#utility.yul\":6330:6333   */\n      dup3\n        /* \"#utility.yul\":6323:6342   */\n      mstore\n        /* \"#utility.yul\":6375:6379   */\n      0x20\n        /* \"#utility.yul\":6370:6373   */\n      dup3\n        /* \"#utility.yul\":6366:6380   */\n      add\n        /* \"#utility.yul\":6351:6380   */\n      swap1\n      pop\n        /* \"#utility.yul\":6217:6386   */\n      swap3\n      swap2\n      pop\n      pop\n      jump\t// out\n        /* \"#utility.yul\":6392:6583   */\n    tag_89:\n        /* \"#utility.yul\":6432:6436   */\n      0x00\n        /* \"#utility.yul\":6452:6472   */\n      tag_174\n        /* \"#utility.yul\":6470:6471   */\n      dup3\n        /* \"#utility.yul\":6452:6472   */\n      tag_155\n      jump\t// in\n    tag_174:\n        /* \"#utility.yul\":6447:6472   */\n      swap2\n      pop\n        /* \"#utility.yul\":6486:6506   */\n      tag_175\n        /* \"#utility.yul\":6504:6505   */\n      dup4\n        /* \"#utility.yul\":6486:6506   */\n      tag_155\n      jump\t// in\n    tag_175:\n        /* \"#utility.yul\":6481:6506   */\n      swap3\n      pop\n        /* \"#utility.yul\":6525:6526   */\n      dup3\n        /* \"#utility.yul\":6522:6523   */\n      dup3\n        /* \"#utility.yul\":6519:6527   */\n      lt\n        /* \"#utility.yul\":6516:6550   */\n      iszero\n      tag_176\n      jumpi\n        /* \"#utility.yul\":6530:6548   */\n      tag_177\n      tag_178\n      jump\t// in\n    tag_177:\n        /* \"#utility.yul\":6516:6550   */\n    tag_176:\n        /* \"#utility.yul\":6575:6576   */\n      dup3\n        /* \"#utility.yul\":6572:6573   */\n      dup3\n        /* \"#utility.yul\":6568:6577   */\n      sub\n        /* \"#utility.yul\":6560:6577   */\n      swap1\n      pop\n        /* \"#utility.yul\":6392:6583   */\n      swap3\n      swap2\n      pop\n      pop\n      jump\t// out\n        /* \"#utility.yul\":6589:6685   */\n    tag_125:\n        /* \"#utility.yul\":6626:6633   */\n      0x00\n        /* \"#utility.yul\":6655:6679   */\n      tag_180\n        /* \"#utility.yul\":6673:6678   */\n      dup3\n        /* \"#utility.yul\":6655:6679   */\n      tag_181\n      jump\t// in\n    tag_180:\n        /* \"#utility.yul\":6644:6679   */\n      swap1\n      pop\n        /* \"#utility.yul\":6589:6685   */\n      swap2\n      swap1\n      pop\n      jump\t// out\n        /* \"#utility.yul\":6691:6817   */\n    tag_181:\n        /* \"#utility.yul\":6728:6735   */\n      0x00\n        /* \"#utility.yul\":6768:6810   */\n      0xffffffffffffffffffffffffffffffffffffffff\n        /* \"#utility.yul\":6761:6766   */\n      dup3\n        /* \"#utility.yul\":6757:6811   */\n      and\n        /* \"#utility.yul\":6746:6811   */\n      swap1\n      pop\n        /* \"#utility.yul\":6691:6817   */\n      swap2\n      swap1\n      pop\n      jump\t// out\n        /* \"#utility.yul\":6823:6900   */\n    tag_155:\n        /* \"#utility.yul\":6860:6867   */\n      0x00\n        /* \"#utility.yul\":6889:6894   */\n      dup2\n        /* \"#utility.yul\":6878:6894   */\n      swap1\n      pop\n        /* \"#utility.yul\":6823:6900   */\n      swap2\n      swap1\n      pop\n      jump\t// out\n        /* \"#utility.yul\":6906:7086   */\n    tag_178:\n        /* \"#utility.yul\":6954:7031   */\n      0x4e487b7100000000000000000000000000000000000000000000000000000000\n        /* \"#utility.yul\":6951:6952   */\n      0x00\n        /* \"#utility.yul\":6944:7032   */\n      mstore\n        /* \"#utility.yul\":7051:7055   */\n      0x11\n        /* \"#utility.yul\":7048:7049   */\n      0x04\n        /* \"#utility.yul\":7041:7056   */\n      mstore\n        /* \"#utility.yul\":7075:7079   */\n      0x24\n        /* \"#utility.yul\":7072:7073   */\n      0x00\n        /* \"#utility.yul\":7065:7080   */\n      revert\n        /* \"#utility.yul\":7215:7332   */\n    tag_111:\n        /* \"#utility.yul\":7324:7325   */\n      0x00\n        /* \"#utility.yul\":7321:7322   */\n      dup1\n        /* \"#utility.yul\":7314:7326   */\n      revert\n        /* \"#utility.yul\":7338:7563   */\n    tag_131:\n        /* \"#utility.yul\":7478:7512   */\n      0x4f776e61626c653a206e6577206f776e657220697320746865207a65726f2061\n        /* \"#utility.yul\":7474:7475   */\n      0x00\n        /* \"#utility.yul\":7466:7472   */\n      dup3\n        /* \"#utility.yul\":7462:7476   */\n      add\n        /* \"#utility.yul\":7455:7513   */\n      mstore\n        /* \"#utility.yul\":7547:7555   */\n      0x6464726573730000000000000000000000000000000000000000000000000000\n        /* \"#utility.yul\":7542:7544   */\n      0x20\n        /* \"#utility.yul\":7534:7540   */\n      dup3\n        /* \"#utility.yul\":7530:7545   */\n      add\n        /* \"#utility.yul\":7523:7556   */\n      mstore\n        /* \"#utility.yul\":7338:7563   */\n      pop\n      jump\t// out\n        /* \"#utility.yul\":7569:7735   */\n    tag_136:\n        /* \"#utility.yul\":7709:7727   */\n      0x4e6f7420656e6f7567682066756e647300000000000000000000000000000000\n        /* \"#utility.yul\":7705:7706   */\n      0x00\n        /* \"#utility.yul\":7697:7703   */\n      dup3\n        /* \"#utility.yul\":7693:7707   */\n      add\n        /* \"#utility.yul\":7686:7728   */\n      mstore\n        /* \"#utility.yul\":7569:7735   */\n      pop\n      jump\t// out\n        /* \"#utility.yul\":7741:7906   */\n    tag_141:\n        /* \"#utility.yul\":7881:7898   */\n      0x43616e27742072656e6f756e6365210000000000000000000000000000000000\n        /* \"#utility.yul\":7877:7878   */\n      0x00\n        /* \"#utility.yul\":7869:7875   */\n      dup3\n        /* \"#utility.yul\":7865:7879   */\n      add\n        /* \"#utility.yul\":7858:7899   */\n      mstore\n        /* \"#utility.yul\":7741:7906   */\n      pop\n      jump\t// out\n        /* \"#utility.yul\":7912:8074   */\n    tag_146:\n        /* \"#utility.yul\":8052:8066   */\n      0x4e6f7420616c6c6f776564210000000000000000000000000000000000000000\n        /* \"#utility.yul\":8048:8049   */\n      0x00\n        /* \"#utility.yul\":8040:8046   */\n      dup3\n        /* \"#utility.yul\":8036:8050   */\n      add\n        /* \"#utility.yul\":8029:8067   */\n      mstore\n        /* \"#utility.yul\":7912:8074   */\n      pop\n      jump\t// out\n        /* \"#utility.yul\":8080:8262   */\n    tag_151:\n        /* \"#utility.yul\":8220:8254   */\n      0x4f776e61626c653a2063616c6c6572206973206e6f7420746865206f776e6572\n        /* \"#utility.yul\":8216:8217   */\n      0x00\n        /* \"#utility.yul\":8208:8214   */\n      dup3\n        /* \"#utility.yul\":8204:8218   */\n      add\n        /* \"#utility.yul\":8197:8255   */\n      mstore\n        /* \"#utility.yul\":8080:8262   */\n      pop\n      jump\t// out\n        /* \"#utility.yul\":8268:8390   */\n    tag_103:\n        /* \"#utility.yul\":8341:8365   */\n      tag_194\n        /* \"#utility.yul\":8359:8364   */\n      dup2\n        /* \"#utility.yul\":8341:8365   */\n      tag_125\n      jump\t// in\n    tag_194:\n        /* \"#utility.yul\":8334:8339   */\n      dup2\n        /* \"#utility.yul\":8331:8366   */\n      eq\n        /* \"#utility.yul\":8321:8384   */\n      tag_195\n      jumpi\n        /* \"#utility.yul\":8380:8381   */\n      0x00\n        /* \"#utility.yul\":8377:8378   */\n      dup1\n        /* \"#utility.yul\":8370:8382   */\n      revert\n        /* \"#utility.yul\":8321:8384   */\n    tag_195:\n        /* \"#utility.yul\":8268:8390   */\n      pop\n      jump\t// out\n        /* \"#utility.yul\":8396:8518   */\n    tag_107:\n        /* \"#utility.yul\":8469:8493   */\n      tag_197\n        /* \"#utility.yul\":8487:8492   */\n      dup2\n        /* \"#utility.yul\":8469:8493   */\n      tag_155\n      jump\t// in\n    tag_197:\n        /* \"#utility.yul\":8462:8467   */\n      dup2\n        /* \"#utility.yul\":8459:8494   */\n      eq\n        /* \"#utility.yul\":8449:8512   */\n      tag_198\n      jumpi\n        /* \"#utility.yul\":8508:8509   */\n      0x00\n        /* \"#utility.yul\":8505:8506   */\n      dup1\n        /* \"#utility.yul\":8498:8510   */\n      revert\n        /* \"#utility.yul\":8449:8512   */\n    tag_198:\n        /* \"#utility.yul\":8396:8518   */\n      pop\n      jump\t// out\n\n    auxdata: 0xa264697066735822122027e2ef072a31b73875a3a642a2876078f1f89d4a58496970097c58ccb9e66f3364736f6c63430008070033\n}\n",
				"bytecode": {
					"linkReferences": {},
					"object": "608060405234801561001057600080fd5b5061002d61002261003260201b60201c565b61003a60201b60201c565b6100fe565b600033905090565b60008060009054906101000a900473ffffffffffffffffffffffffffffffffffffffff169050816000806101000a81548173ffffffffffffffffffffffffffffffffffffffff021916908373ffffffffffffffffffffffffffffffffffffffff1602179055508173ffffffffffffffffffffffffffffffffffffffff168173ffffffffffffffffffffffffffffffffffffffff167f8be0079c531659141344cd1fd0a4f28419497f9722a3daafe3b4186f6b6457e060405160405180910390a35050565b610b288061010d6000396000f3fe6080604052600436106100745760003560e01c8063548769211161004e578063548769211461015c578063715018a6146101855780638da5cb5b1461019c578063f2fde38b146101c7576100c9565b806308ae4b0c146100cb57806312065fe01461010857806317b3fe1614610133576100c9565b366100c9573373ffffffffffffffffffffffffffffffffffffffff167f27b15ed4cf832749ed39f33a64e4707ed60a761485e41ffec7343ecaddc0c02a346040516100bf9190610901565b60405180910390a2005b005b3480156100d757600080fd5b506100f260048036038101906100ed91906106df565b6101f0565b6040516100ff9190610901565b60405180910390f35b34801561011457600080fd5b5061011d610208565b60405161012a9190610901565b60405180910390f35b34801561013f57600080fd5b5061015a60048036038101906101559190610739565b610210565b005b34801561016857600080fd5b50610183600480360381019061017e919061070c565b610258565b005b34801561019157600080fd5b5061019a6103e4565b005b3480156101a857600080fd5b506101b1610427565b6040516101be9190610846565b60405180910390f35b3480156101d357600080fd5b506101ee60048036038101906101e991906106df565b610450565b005b60016020528060005260406000206000915090505481565b600047905090565b81600160008373ffffffffffffffffffffffffffffffffffffffff1673ffffffffffffffffffffffffffffffffffffffff168152602001908152602001600020819055505050565b806102616104d4565b806102ab575080600160003373ffffffffffffffffffffffffffffffffffffffff1673ffffffffffffffffffffffffffffffffffffffff1681526020019081526020016000205410155b6102ea576040517f08c379a00000000000000000000000000000000000000000000000000000000081526004016102e1906108c1565b60405180910390fd5b6102f2610208565b821115610334576040517f08c379a000000000000000000000000000000000000000000000000000000000815260040161032b90610881565b60405180910390fd5b61033c6104d4565b61034b5761034a3383610511565b5b3373ffffffffffffffffffffffffffffffffffffffff166108fc839081150290604051600060405180830381858888f19350505050158015610391573d6000803e3d6000fd5b503373ffffffffffffffffffffffffffffffffffffffff167fe020566b3b7b0c11a72c9a01a70122b5bb1e70d24128480342bad5367fbf54e2836040516103d89190610901565b60405180910390a25050565b6103ec61056b565b6040517f08c379a000000000000000000000000000000000000000000000000000000000815260040161041e906108a1565b60405180910390fd5b60008060009054906101000a900473ffffffffffffffffffffffffffffffffffffffff16905090565b61045861056b565b600073ffffffffffffffffffffffffffffffffffffffff168173ffffffffffffffffffffffffffffffffffffffff1614156104c8576040517f08c379a00000000000000000000000000000000000000000000000000000000081526004016104bf90610861565b60405180910390fd5b6104d1816105e9565b50565b60003373ffffffffffffffffffffffffffffffffffffffff166104f5610427565b73ffffffffffffffffffffffffffffffffffffffff1614905090565b80600160008473ffffffffffffffffffffffffffffffffffffffff1673ffffffffffffffffffffffffffffffffffffffff1681526020019081526020016000206000828254610560919061092d565b925050819055505050565b6105736106ad565b73ffffffffffffffffffffffffffffffffffffffff16610591610427565b73ffffffffffffffffffffffffffffffffffffffff16146105e7576040517f08c379a00000000000000000000000000000000000000000000000000000000081526004016105de906108e1565b60405180910390fd5b565b60008060009054906101000a900473ffffffffffffffffffffffffffffffffffffffff169050816000806101000a81548173ffffffffffffffffffffffffffffffffffffffff021916908373ffffffffffffffffffffffffffffffffffffffff1602179055508173ffffffffffffffffffffffffffffffffffffffff168173ffffffffffffffffffffffffffffffffffffffff167f8be0079c531659141344cd1fd0a4f28419497f9722a3daafe3b4186f6b6457e060405160405180910390a35050565b600033905090565b6000813590506106c481610ac4565b92915050565b6000813590506106d981610adb565b92915050565b6000602082840312156106f5576106f46109cc565b5b6000610703848285016106b5565b91505092915050565b600060208284031215610722576107216109cc565b5b6000610730848285016106ca565b91505092915050565b600080604083850312156107505761074f6109cc565b5b600061075e858286016106ca565b925050602061076f858286016106b5565b9150509250929050565b61078281610961565b82525050565b600061079560268361091c565b91506107a0826109d1565b604082019050919050565b60006107b860108361091c565b91506107c382610a20565b602082019050919050565b60006107db600f8361091c565b91506107e682610a49565b602082019050919050565b60006107fe600c8361091c565b915061080982610a72565b602082019050919050565b600061082160208361091c565b915061082c82610a9b565b602082019050919050565b61084081610993565b82525050565b600060208201905061085b6000830184610779565b92915050565b6000602082019050818103600083015261087a81610788565b9050919050565b6000602082019050818103600083015261089a816107ab565b9050919050565b600060208201905081810360008301526108ba816107ce565b9050919050565b600060208201905081810360008301526108da816107f1565b9050919050565b600060208201905081810360008301526108fa81610814565b9050919050565b60006020820190506109166000830184610837565b92915050565b600082825260208201905092915050565b600061093882610993565b915061094383610993565b9250828210156109565761095561099d565b5b828203905092915050565b600061096c82610973565b9050919050565b600073ffffffffffffffffffffffffffffffffffffffff82169050919050565b6000819050919050565b7f4e487b7100000000000000000000000000000000000000000000000000000000600052601160045260246000fd5b600080fd5b7f4f776e61626c653a206e6577206f776e657220697320746865207a65726f206160008201527f6464726573730000000000000000000000000000000000000000000000000000602082015250565b7f4e6f7420656e6f7567682066756e647300000000000000000000000000000000600082015250565b7f43616e27742072656e6f756e6365210000000000000000000000000000000000600082015250565b7f4e6f7420616c6c6f776564210000000000000000000000000000000000000000600082015250565b7f4f776e61626c653a2063616c6c6572206973206e6f7420746865206f776e6572600082015250565b610acd81610961565b8114610ad857600080fd5b50565b610ae481610993565b8114610aef57600080fd5b5056fea264697066735822122027e2ef072a31b73875a3a642a2876078f1f89d4a58496970097c58ccb9e66f3364736f6c63430008070033",
					"opcodes": "PUSH1 0x80 PUSH1 0x40 MSTORE CALLVALUE DUP1 ISZERO PUSH2 0x10 JUMPI PUSH1 0x0 DUP1 REVERT JUMPDEST POP PUSH2 0x2D PUSH2 0x22 PUSH2 0x32 PUSH1 0x20 SHL PUSH1 0x20 SHR JUMP JUMPDEST PUSH2 0x3A PUSH1 0x20 SHL PUSH1 0x20 SHR JUMP JUMPDEST PUSH2 0xFE JUMP JUMPDEST PUSH1 0x0 CALLER SWAP1 POP SWAP1 JUMP JUMPDEST PUSH1 0x0 DUP1 PUSH1 0x0 SWAP1 SLOAD SWAP1 PUSH2 0x100 EXP SWAP1 DIV PUSH20 0xFFFFFFFFFFFFFFFFFFFFFFFFFFFFFFFFFFFFFFFF AND SWAP1 POP DUP2 PUSH1 0x0 DUP1 PUSH2 0x100 EXP DUP2 SLOAD DUP2 PUSH20 0xFFFFFFFFFFFFFFFFFFFFFFFFFFFFFFFFFFFFFFFF MUL NOT AND SWAP1 DUP4 PUSH20 0xFFFFFFFFFFFFFFFFFFFFFFFFFFFFFFFFFFFFFFFF AND MUL OR SWAP1 SSTORE POP DUP2 PUSH20 0xFFFFFFFFFFFFFFFFFFFFFFFFFFFFFFFFFFFFFFFF AND DUP2 PUSH20 0xFFFFFFFFFFFFFFFFFFFFFFFFFFFFFFFFFFFFFFFF AND PUSH32 0x8BE0079C531659141344CD1FD0A4F28419497F9722A3DAAFE3B4186F6B6457E0 PUSH1 0x40 MLOAD PUSH1 0x40 MLOAD DUP1 SWAP2 SUB SWAP1 LOG3 POP POP JUMP JUMPDEST PUSH2 0xB28 DUP1 PUSH2 0x10D PUSH1 0x0 CODECOPY PUSH1 0x0 RETURN INVALID PUSH1 0x80 PUSH1 0x40 MSTORE PUSH1 0x4 CALLDATASIZE LT PUSH2 0x74 JUMPI PUSH1 0x0 CALLDATALOAD PUSH1 0xE0 SHR DUP1 PUSH4 0x54876921 GT PUSH2 0x4E JUMPI DUP1 PUSH4 0x54876921 EQ PUSH2 0x15C JUMPI DUP1 PUSH4 0x715018A6 EQ PUSH2 0x185 JUMPI DUP1 PUSH4 0x8DA5CB5B EQ PUSH2 0x19C JUMPI DUP1 PUSH4 0xF2FDE38B EQ PUSH2 0x1C7 JUMPI PUSH2 0xC9 JUMP JUMPDEST DUP1 PUSH4 0x8AE4B0C EQ PUSH2 0xCB JUMPI DUP1 PUSH4 0x12065FE0 EQ PUSH2 0x108 JUMPI DUP1 PUSH4 0x17B3FE16 EQ PUSH2 0x133 JUMPI PUSH2 0xC9 JUMP JUMPDEST CALLDATASIZE PUSH2 0xC9 JUMPI CALLER PUSH20 0xFFFFFFFFFFFFFFFFFFFFFFFFFFFFFFFFFFFFFFFF AND PUSH32 0x27B15ED4CF832749ED39F33A64E4707ED60A761485E41FFEC7343ECADDC0C02A CALLVALUE PUSH1 0x40 MLOAD PUSH2 0xBF SWAP2 SWAP1 PUSH2 0x901 JUMP JUMPDEST PUSH1 0x40 MLOAD DUP1 SWAP2 SUB SWAP1 LOG2 STOP JUMPDEST STOP JUMPDEST CALLVALUE DUP1 ISZERO PUSH2 0xD7 JUMPI PUSH1 0x0 DUP1 REVERT JUMPDEST POP PUSH2 0xF2 PUSH1 0x4 DUP1 CALLDATASIZE SUB DUP2 ADD SWAP1 PUSH2 0xED SWAP2 SWAP1 PUSH2 0x6DF JUMP JUMPDEST PUSH2 0x1F0 JUMP JUMPDEST PUSH1 0x40 MLOAD PUSH2 0xFF SWAP2 SWAP1 PUSH2 0x901 JUMP JUMPDEST PUSH1 0x40 MLOAD DUP1 SWAP2 SUB SWAP1 RETURN JUMPDEST CALLVALUE DUP1 ISZERO PUSH2 0x114 JUMPI PUSH1 0x0 DUP1 REVERT JUMPDEST POP PUSH2 0x11D PUSH2 0x208 JUMP JUMPDEST PUSH1 0x40 MLOAD PUSH2 0x12A SWAP2 SWAP1 PUSH2 0x901 JUMP JUMPDEST PUSH1 0x40 MLOAD DUP1 SWAP2 SUB SWAP1 RETURN JUMPDEST CALLVALUE DUP1 ISZERO PUSH2 0x13F JUMPI PUSH1 0x0 DUP1 REVERT JUMPDEST POP PUSH2 0x15A PUSH1 0x4 DUP1 CALLDATASIZE SUB DUP2 ADD SWAP1 PUSH2 0x155 SWAP2 SWAP1 PUSH2 0x739 JUMP JUMPDEST PUSH2 0x210 JUMP JUMPDEST STOP JUMPDEST CALLVALUE DUP1 ISZERO PUSH2 0x168 JUMPI PUSH1 0x0 DUP1 REVERT JUMPDEST POP PUSH2 0x183 PUSH1 0x4 DUP1 CALLDATASIZE SUB DUP2 ADD SWAP1 PUSH2 0x17E SWAP2 SWAP1 PUSH2 0x70C JUMP JUMPDEST PUSH2 0x258 JUMP JUMPDEST STOP JUMPDEST CALLVALUE DUP1 ISZERO PUSH2 0x191 JUMPI PUSH1 0x0 DUP1 REVERT JUMPDEST POP PUSH2 0x19A PUSH2 0x3E4 JUMP JUMPDEST STOP JUMPDEST CALLVALUE DUP1 ISZERO PUSH2 0x1A8 JUMPI PUSH1 0x0 DUP1 REVERT JUMPDEST POP PUSH2 0x1B1 PUSH2 0x427 JUMP JUMPDEST PUSH1 0x40 MLOAD PUSH2 0x1BE SWAP2 SWAP1 PUSH2 0x846 JUMP JUMPDEST PUSH1 0x40 MLOAD DUP1 SWAP2 SUB SWAP1 RETURN JUMPDEST CALLVALUE DUP1 ISZERO PUSH2 0x1D3 JUMPI PUSH1 0x0 DUP1 REVERT JUMPDEST POP PUSH2 0x1EE PUSH1 0x4 DUP1 CALLDATASIZE SUB DUP2 ADD SWAP1 PUSH2 0x1E9 SWAP2 SWAP1 PUSH2 0x6DF JUMP JUMPDEST PUSH2 0x450 JUMP JUMPDEST STOP JUMPDEST PUSH1 0x1 PUSH1 0x20 MSTORE DUP1 PUSH1 0x0 MSTORE PUSH1 0x40 PUSH1 0x0 KECCAK256 PUSH1 0x0 SWAP2 POP SWAP1 POP SLOAD DUP2 JUMP JUMPDEST PUSH1 0x0 SELFBALANCE SWAP1 POP SWAP1 JUMP JUMPDEST DUP2 PUSH1 0x1 PUSH1 0x0 DUP4 PUSH20 0xFFFFFFFFFFFFFFFFFFFFFFFFFFFFFFFFFFFFFFFF AND PUSH20 0xFFFFFFFFFFFFFFFFFFFFFFFFFFFFFFFFFFFFFFFF AND DUP2 MSTORE PUSH1 0x20 ADD SWAP1 DUP2 MSTORE PUSH1 0x20 ADD PUSH1 0x0 KECCAK256 DUP2 SWAP1 SSTORE POP POP POP JUMP JUMPDEST DUP1 PUSH2 0x261 PUSH2 0x4D4 JUMP JUMPDEST DUP1 PUSH2 0x2AB JUMPI POP DUP1 PUSH1 0x1 PUSH1 0x0 CALLER PUSH20 0xFFFFFFFFFFFFFFFFFFFFFFFFFFFFFFFFFFFFFFFF AND PUSH20 0xFFFFFFFFFFFFFFFFFFFFFFFFFFFFFFFFFFFFFFFF AND DUP2 MSTORE PUSH1 0x20 ADD SWAP1 DUP2 MSTORE PUSH1 0x20 ADD PUSH1 0x0 KECCAK256 SLOAD LT ISZERO JUMPDEST PUSH2 0x2EA JUMPI PUSH1 0x40 MLOAD PUSH32 0x8C379A000000000000000000000000000000000000000000000000000000000 DUP2 MSTORE PUSH1 0x4 ADD PUSH2 0x2E1 SWAP1 PUSH2 0x8C1 JUMP JUMPDEST PUSH1 0x40 MLOAD DUP1 SWAP2 SUB SWAP1 REVERT JUMPDEST PUSH2 0x2F2 PUSH2 0x208 JUMP JUMPDEST DUP3 GT ISZERO PUSH2 0x334 JUMPI PUSH1 0x40 MLOAD PUSH32 0x8C379A000000000000000000000000000000000000000000000000000000000 DUP2 MSTORE PUSH1 0x4 ADD PUSH2 0x32B SWAP1 PUSH2 0x881 JUMP JUMPDEST PUSH1 0x40 MLOAD DUP1 SWAP2 SUB SWAP1 REVERT JUMPDEST PUSH2 0x33C PUSH2 0x4D4 JUMP JUMPDEST PUSH2 0x34B JUMPI PUSH2 0x34A CALLER DUP4 PUSH2 0x511 JUMP JUMPDEST JUMPDEST CALLER PUSH20 0xFFFFFFFFFFFFFFFFFFFFFFFFFFFFFFFFFFFFFFFF AND PUSH2 0x8FC DUP4 SWAP1 DUP2 ISZERO MUL SWAP1 PUSH1 0x40 MLOAD PUSH1 0x0 PUSH1 0x40 MLOAD DUP1 DUP4 SUB DUP2 DUP6 DUP9 DUP9 CALL SWAP4 POP POP POP POP ISZERO DUP1 ISZERO PUSH2 0x391 JUMPI RETURNDATASIZE PUSH1 0x0 DUP1 RETURNDATACOPY RETURNDATASIZE PUSH1 0x0 REVERT JUMPDEST POP CALLER PUSH20 0xFFFFFFFFFFFFFFFFFFFFFFFFFFFFFFFFFFFFFFFF AND PUSH32 0xE020566B3B7B0C11A72C9A01A70122B5BB1E70D24128480342BAD5367FBF54E2 DUP4 PUSH1 0x40 MLOAD PUSH2 0x3D8 SWAP2 SWAP1 PUSH2 0x901 JUMP JUMPDEST PUSH1 0x40 MLOAD DUP1 SWAP2 SUB SWAP1 LOG2 POP POP JUMP JUMPDEST PUSH2 0x3EC PUSH2 0x56B JUMP JUMPDEST PUSH1 0x40 MLOAD PUSH32 0x8C379A000000000000000000000000000000000000000000000000000000000 DUP2 MSTORE PUSH1 0x4 ADD PUSH2 0x41E SWAP1 PUSH2 0x8A1 JUMP JUMPDEST PUSH1 0x40 MLOAD DUP1 SWAP2 SUB SWAP1 REVERT JUMPDEST PUSH1 0x0 DUP1 PUSH1 0x0 SWAP1 SLOAD SWAP1 PUSH2 0x100 EXP SWAP1 DIV PUSH20 0xFFFFFFFFFFFFFFFFFFFFFFFFFFFFFFFFFFFFFFFF AND SWAP1 POP SWAP1 JUMP JUMPDEST PUSH2 0x458 PUSH2 0x56B JUMP JUMPDEST PUSH1 0x0 PUSH20 0xFFFFFFFFFFFFFFFFFFFFFFFFFFFFFFFFFFFFFFFF AND DUP2 PUSH20 0xFFFFFFFFFFFFFFFFFFFFFFFFFFFFFFFFFFFFFFFF AND EQ ISZERO PUSH2 0x4C8 JUMPI PUSH1 0x40 MLOAD PUSH32 0x8C379A000000000000000000000000000000000000000000000000000000000 DUP2 MSTORE PUSH1 0x4 ADD PUSH2 0x4BF SWAP1 PUSH2 0x861 JUMP JUMPDEST PUSH1 0x40 MLOAD DUP1 SWAP2 SUB SWAP1 REVERT JUMPDEST PUSH2 0x4D1 DUP2 PUSH2 0x5E9 JUMP JUMPDEST POP JUMP JUMPDEST PUSH1 0x0 CALLER PUSH20 0xFFFFFFFFFFFFFFFFFFFFFFFFFFFFFFFFFFFFFFFF AND PUSH2 0x4F5 PUSH2 0x427 JUMP JUMPDEST PUSH20 0xFFFFFFFFFFFFFFFFFFFFFFFFFFFFFFFFFFFFFFFF AND EQ SWAP1 POP SWAP1 JUMP JUMPDEST DUP1 PUSH1 0x1 PUSH1 0x0 DUP5 PUSH20 0xFFFFFFFFFFFFFFFFFFFFFFFFFFFFFFFFFFFFFFFF AND PUSH20 0xFFFFFFFFFFFFFFFFFFFFFFFFFFFFFFFFFFFFFFFF AND DUP2 MSTORE PUSH1 0x20 ADD SWAP1 DUP2 MSTORE PUSH1 0x20 ADD PUSH1 0x0 KECCAK256 PUSH1 0x0 DUP3 DUP3 SLOAD PUSH2 0x560 SWAP2 SWAP1 PUSH2 0x92D JUMP JUMPDEST SWAP3 POP POP DUP2 SWAP1 SSTORE POP POP POP JUMP JUMPDEST PUSH2 0x573 PUSH2 0x6AD JUMP JUMPDEST PUSH20 0xFFFFFFFFFFFFFFFFFFFFFFFFFFFFFFFFFFFFFFFF AND PUSH2 0x591 PUSH2 0x427 JUMP JUMPDEST PUSH20 0xFFFFFFFFFFFFFFFFFFFFFFFFFFFFFFFFFFFFFFFF AND EQ PUSH2 0x5E7 JUMPI PUSH1 0x40 MLOAD PUSH32 0x8C379A000000000000000000000000000000000000000000000000000000000 DUP2 MSTORE PUSH1 0x4 ADD PUSH2 0x5DE SWAP1 PUSH2 0x8E1 JUMP JUMPDEST PUSH1 0x40 MLOAD DUP1 SWAP2 SUB SWAP1 REVERT JUMPDEST JUMP JUMPDEST PUSH1 0x0 DUP1 PUSH1 0x0 SWAP1 SLOAD SWAP1 PUSH2 0x100 EXP SWAP1 DIV PUSH20 0xFFFFFFFFFFFFFFFFFFFFFFFFFFFFFFFFFFFFFFFF AND SWAP1 POP DUP2 PUSH1 0x0 DUP1 PUSH2 0x100 EXP DUP2 SLOAD DUP2 PUSH20 0xFFFFFFFFFFFFFFFFFFFFFFFFFFFFFFFFFFFFFFFF MUL NOT AND SWAP1 DUP4 PUSH20 0xFFFFFFFFFFFFFFFFFFFFFFFFFFFFFFFFFFFFFFFF AND MUL OR SWAP1 SSTORE POP DUP2 PUSH20 0xFFFFFFFFFFFFFFFFFFFFFFFFFFFFFFFFFFFFFFFF AND DUP2 PUSH20 0xFFFFFFFFFFFFFFFFFFFFFFFFFFFFFFFFFFFFFFFF AND PUSH32 0x8BE0079C531659141344CD1FD0A4F28419497F9722A3DAAFE3B4186F6B6457E0 PUSH1 0x40 MLOAD PUSH1 0x40 MLOAD DUP1 SWAP2 SUB SWAP1 LOG3 POP POP JUMP JUMPDEST PUSH1 0x0 CALLER SWAP1 POP SWAP1 JUMP JUMPDEST PUSH1 0x0 DUP2 CALLDATALOAD SWAP1 POP PUSH2 0x6C4 DUP2 PUSH2 0xAC4 JUMP JUMPDEST SWAP3 SWAP2 POP POP JUMP JUMPDEST PUSH1 0x0 DUP2 CALLDATALOAD SWAP1 POP PUSH2 0x6D9 DUP2 PUSH2 0xADB JUMP JUMPDEST SWAP3 SWAP2 POP POP JUMP JUMPDEST PUSH1 0x0 PUSH1 0x20 DUP3 DUP5 SUB SLT ISZERO PUSH2 0x6F5 JUMPI PUSH2 0x6F4 PUSH2 0x9CC JUMP JUMPDEST JUMPDEST PUSH1 0x0 PUSH2 0x703 DUP5 DUP3 DUP6 ADD PUSH2 0x6B5 JUMP JUMPDEST SWAP2 POP POP SWAP3 SWAP2 POP POP JUMP JUMPDEST PUSH1 0x0 PUSH1 0x20 DUP3 DUP5 SUB SLT ISZERO PUSH2 0x722 JUMPI PUSH2 0x721 PUSH2 0x9CC JUMP JUMPDEST JUMPDEST PUSH1 0x0 PUSH2 0x730 DUP5 DUP3 DUP6 ADD PUSH2 0x6CA JUMP JUMPDEST SWAP2 POP POP SWAP3 SWAP2 POP POP JUMP JUMPDEST PUSH1 0x0 DUP1 PUSH1 0x40 DUP4 DUP6 SUB SLT ISZERO PUSH2 0x750 JUMPI PUSH2 0x74F PUSH2 0x9CC JUMP JUMPDEST JUMPDEST PUSH1 0x0 PUSH2 0x75E DUP6 DUP3 DUP7 ADD PUSH2 0x6CA JUMP JUMPDEST SWAP3 POP POP PUSH1 0x20 PUSH2 0x76F DUP6 DUP3 DUP7 ADD PUSH2 0x6B5 JUMP JUMPDEST SWAP2 POP POP SWAP3 POP SWAP3 SWAP1 POP JUMP JUMPDEST PUSH2 0x782 DUP2 PUSH2 0x961 JUMP JUMPDEST DUP3 MSTORE POP POP JUMP JUMPDEST PUSH1 0x0 PUSH2 0x795 PUSH1 0x26 DUP4 PUSH2 0x91C JUMP JUMPDEST SWAP2 POP PUSH2 0x7A0 DUP3 PUSH2 0x9D1 JUMP JUMPDEST PUSH1 0x40 DUP3 ADD SWAP1 POP SWAP2 SWAP1 POP JUMP JUMPDEST PUSH1 0x0 PUSH2 0x7B8 PUSH1 0x10 DUP4 PUSH2 0x91C JUMP JUMPDEST SWAP2 POP PUSH2 0x7C3 DUP3 PUSH2 0xA20 JUMP JUMPDEST PUSH1 0x20 DUP3 ADD SWAP1 POP SWAP2 SWAP1 POP JUMP JUMPDEST PUSH1 0x0 PUSH2 0x7DB PUSH1 0xF DUP4 PUSH2 0x91C JUMP JUMPDEST SWAP2 POP PUSH2 0x7E6 DUP3 PUSH2 0xA49 JUMP JUMPDEST PUSH1 0x20 DUP3 ADD SWAP1 POP SWAP2 SWAP1 POP JUMP JUMPDEST PUSH1 0x0 PUSH2 0x7FE PUSH1 0xC DUP4 PUSH2 0x91C JUMP JUMPDEST SWAP2 POP PUSH2 0x809 DUP3 PUSH2 0xA72 JUMP JUMPDEST PUSH1 0x20 DUP3 ADD SWAP1 POP SWAP2 SWAP1 POP JUMP JUMPDEST PUSH1 0x0 PUSH2 0x821 PUSH1 0x20 DUP4 PUSH2 0x91C JUMP JUMPDEST SWAP2 POP PUSH2 0x82C DUP3 PUSH2 0xA9B JUMP JUMPDEST PUSH1 0x20 DUP3 ADD SWAP1 POP SWAP2 SWAP1 POP JUMP JUMPDEST PUSH2 0x840 DUP2 PUSH2 0x993 JUMP JUMPDEST DUP3 MSTORE POP POP JUMP JUMPDEST PUSH1 0x0 PUSH1 0x20 DUP3 ADD SWAP1 POP PUSH2 0x85B PUSH1 0x0 DUP4 ADD DUP5 PUSH2 0x779 JUMP JUMPDEST SWAP3 SWAP2 POP POP JUMP JUMPDEST PUSH1 0x0 PUSH1 0x20 DUP3 ADD SWAP1 POP DUP2 DUP2 SUB PUSH1 0x0 DUP4 ADD MSTORE PUSH2 0x87A DUP2 PUSH2 0x788 JUMP JUMPDEST SWAP1 POP SWAP2 SWAP1 POP JUMP JUMPDEST PUSH1 0x0 PUSH1 0x20 DUP3 ADD SWAP1 POP DUP2 DUP2 SUB PUSH1 0x0 DUP4 ADD MSTORE PUSH2 0x89A DUP2 PUSH2 0x7AB JUMP JUMPDEST SWAP1 POP SWAP2 SWAP1 POP JUMP JUMPDEST PUSH1 0x0 PUSH1 0x20 DUP3 ADD SWAP1 POP DUP2 DUP2 SUB PUSH1 0x0 DUP4 ADD MSTORE PUSH2 0x8BA DUP2 PUSH2 0x7CE JUMP JUMPDEST SWAP1 POP SWAP2 SWAP1 POP JUMP JUMPDEST PUSH1 0x0 PUSH1 0x20 DUP3 ADD SWAP1 POP DUP2 DUP2 SUB PUSH1 0x0 DUP4 ADD MSTORE PUSH2 0x8DA DUP2 PUSH2 0x7F1 JUMP JUMPDEST SWAP1 POP SWAP2 SWAP1 POP JUMP JUMPDEST PUSH1 0x0 PUSH1 0x20 DUP3 ADD SWAP1 POP DUP2 DUP2 SUB PUSH1 0x0 DUP4 ADD MSTORE PUSH2 0x8FA DUP2 PUSH2 0x814 JUMP JUMPDEST SWAP1 POP SWAP2 SWAP1 POP JUMP JUMPDEST PUSH1 0x0 PUSH1 0x20 DUP3 ADD SWAP1 POP PUSH2 0x916 PUSH1 0x0 DUP4 ADD DUP5 PUSH2 0x837 JUMP JUMPDEST SWAP3 SWAP2 POP POP JUMP JUMPDEST PUSH1 0x0 DUP3 DUP3 MSTORE PUSH1 0x20 DUP3 ADD SWAP1 POP SWAP3 SWAP2 POP POP JUMP JUMPDEST PUSH1 0x0 PUSH2 0x938 DUP3 PUSH2 0x993 JUMP JUMPDEST SWAP2 POP PUSH2 0x943 DUP4 PUSH2 0x993 JUMP JUMPDEST SWAP3 POP DUP3 DUP3 LT ISZERO PUSH2 0x956 JUMPI PUSH2 0x955 PUSH2 0x99D JUMP JUMPDEST JUMPDEST DUP3 DUP3 SUB SWAP1 POP SWAP3 SWAP2 POP POP JUMP JUMPDEST PUSH1 0x0 PUSH2 0x96C DUP3 PUSH2 0x973 JUMP JUMPDEST SWAP1 POP SWAP2 SWAP1 POP JUMP JUMPDEST PUSH1 0x0 PUSH20 0xFFFFFFFFFFFFFFFFFFFFFFFFFFFFFFFFFFFFFFFF DUP3 AND SWAP1 POP SWAP2 SWAP1 POP JUMP JUMPDEST PUSH1 0x0 DUP2 SWAP1 POP SWAP2 SWAP1 POP JUMP JUMPDEST PUSH32 0x4E487B7100000000000000000000000000000000000000000000000000000000 PUSH1 0x0 MSTORE PUSH1 0x11 PUSH1 0x4 MSTORE PUSH1 0x24 PUSH1 0x0 REVERT JUMPDEST PUSH1 0x0 DUP1 REVERT JUMPDEST PUSH32 0x4F776E61626C653A206E6577206F776E657220697320746865207A65726F2061 PUSH1 0x0 DUP3 ADD MSTORE PUSH32 0x6464726573730000000000000000000000000000000000000000000000000000 PUSH1 0x20 DUP3 ADD MSTORE POP JUMP JUMPDEST PUSH32 0x4E6F7420656E6F7567682066756E647300000000000000000000000000000000 PUSH1 0x0 DUP3 ADD MSTORE POP JUMP JUMPDEST PUSH32 0x43616E27742072656E6F756E6365210000000000000000000000000000000000 PUSH1 0x0 DUP3 ADD MSTORE POP JUMP JUMPDEST PUSH32 0x4E6F7420616C6C6F776564210000000000000000000000000000000000000000 PUSH1 0x0 DUP3 ADD MSTORE POP JUMP JUMPDEST PUSH32 0x4F776E61626C653A2063616C6C6572206973206E6F7420746865206F776E6572 PUSH1 0x0 DUP3 ADD MSTORE POP JUMP JUMPDEST PUSH2 0xACD DUP2 PUSH2 0x961 JUMP JUMPDEST DUP2 EQ PUSH2 0xAD8 JUMPI PUSH1 0x0 DUP1 REVERT JUMPDEST POP JUMP JUMPDEST PUSH2 0xAE4 DUP2 PUSH2 0x993 JUMP JUMPDEST DUP2 EQ PUSH2 0xAEF JUMPI PUSH1 0x0 DUP1 REVERT JUMPDEST POP JUMP INVALID LOG2 PUSH5 0x6970667358 0x22 SLT KECCAK256 0x27 0xE2 0xEF SMOD 0x2A BALANCE 0xB7 CODESIZE PUSH22 0xA3A642A2876078F1F89D4A58496970097C58CCB9E66F CALLER PUSH5 0x736F6C6343 STOP ADDMOD SMOD STOP CALLER "
				},
				"gasEstimates": {
					"creation": {
						"codeDepositCost": "571200",
						"executionCost": "infinite",
						"totalCost": "infinite"
					},
					"external": {
						"": "152",
						"addLimit(uint256,address)": "22877",
						"getBalance()": "362",
						"members(address)": "2815",
						"owner()": "2566",
						"renounceOwnership()": "2720",
						"transferOwnership(address)": "30813",
						"withdrawMoney(uint256)": "infinite"
					}
				},
				"methodIdentifiers": {
					"addLimit(uint256,address)": "17b3fe16",
					"getBalance()": "12065fe0",
					"members(address)": "08ae4b0c",
					"owner()": "8da5cb5b",
					"renounceOwnership()": "715018a6",
					"transferOwnership(address)": "f2fde38b",
					"withdrawMoney(uint256)": "54876921"
				}
			},
			"storageLayout": {
				"storage": [
					{
						"astId": 7,
						"contract": "contracts/Wallet.sol:Wallet",
						"label": "_owner",
						"offset": 0,
						"slot": "0",
						"type": "t_address"
					},
					{
						"astId": 143,
						"contract": "contracts/Wallet.sol:Wallet",
						"label": "members",
						"offset": 0,
						"slot": "1",
						"type": "t_mapping(t_address,t_uint256)"
					}
				],
				"types": {
					"t_address": {
						"encoding": "inplace",
						"label": "address",
						"numberOfBytes": "20"
					},
					"t_mapping(t_address,t_uint256)": {
						"encoding": "mapping",
						"key": "t_address",
						"label": "mapping(address => uint256)",
						"numberOfBytes": "32",
						"value": "t_uint256"
					},
					"t_uint256": {
						"encoding": "inplace",
						"label": "uint256",
						"numberOfBytes": "32"
					}
				}
			},
			"userdoc": {
				"kind": "user",
				"methods": {},
				"version": 1
			}
		}
	}
}