{
	"contracts/SharedWallet.sol": {
		"SharedWallet": {
			"abi": [
				{
					"anonymous": false,
					"inputs": [
						{
							"indexed": true,
							"internalType": "address",
							"name": "previousOwner",
							"type": "address"
						},
						{
							"indexed": true,
							"internalType": "address",
							"name": "newOwner",
							"type": "address"
						}
					],
					"name": "OwnershipTransferred",
					"type": "event"
				},
				{
					"inputs": [
						{
							"internalType": "uint256",
							"name": "_limit",
							"type": "uint256"
						},
						{
							"internalType": "address",
							"name": "_member",
							"type": "address"
						}
					],
					"name": "addLimit",
					"outputs": [],
					"stateMutability": "nonpayable",
					"type": "function"
				},
				{
					"inputs": [
						{
							"internalType": "address",
							"name": "",
							"type": "address"
						}
					],
					"name": "members",
					"outputs": [
						{
							"internalType": "uint256",
							"name": "",
							"type": "uint256"
						}
					],
					"stateMutability": "view",
					"type": "function"
				},
				{
					"inputs": [],
					"name": "owner",
					"outputs": [
						{
							"internalType": "address",
							"name": "",
							"type": "address"
						}
					],
					"stateMutability": "view",
					"type": "function"
				},
				{
					"inputs": [],
					"name": "renounceOwnership",
					"outputs": [],
					"stateMutability": "view",
					"type": "function"
				},
				{
					"inputs": [
						{
							"internalType": "address",
							"name": "newOwner",
							"type": "address"
						}
					],
					"name": "transferOwnership",
					"outputs": [],
					"stateMutability": "nonpayable",
					"type": "function"
				}
			],
			"devdoc": {
				"kind": "dev",
				"methods": {
					"owner()": {
						"details": "Returns the address of the current owner."
					},
					"renounceOwnership()": {
						"details": "Leaves the contract without owner. It will not be possible to call `onlyOwner` functions anymore. Can only be called by the current owner. NOTE: Renouncing ownership will leave the contract without an owner, thereby removing any functionality that is only available to the owner."
					},
					"transferOwnership(address)": {
						"details": "Transfers ownership of the contract to a new account (`newOwner`). Can only be called by the current owner."
					}
				},
				"version": 1
			},
			"evm": {
				"assembly": "    /* \"contracts/SharedWallet.sol\":111:758  contract SharedWallet is Ownable {... */\n  mstore(0x40, 0x80)\n  callvalue\n  dup1\n  iszero\n  tag_1\n  jumpi\n  0x00\n  dup1\n  revert\ntag_1:\n  pop\n    /* \"@openzeppelin/contracts/access/Ownable.sol\":936:968  _transferOwnership(_msgSender()) */\n  tag_4\n    /* \"@openzeppelin/contracts/access/Ownable.sol\":955:967  _msgSender() */\n  tag_5\n    /* \"@openzeppelin/contracts/access/Ownable.sol\":955:965  _msgSender */\n  shl(0x20, tag_6)\n    /* \"@openzeppelin/contracts/access/Ownable.sol\":955:967  _msgSender() */\n  0x20\n  shr\n  jump\t// in\ntag_5:\n    /* \"@openzeppelin/contracts/access/Ownable.sol\":936:954  _transferOwnership */\n  shl(0x20, tag_7)\n    /* \"@openzeppelin/contracts/access/Ownable.sol\":936:968  _transferOwnership(_msgSender()) */\n  0x20\n  shr\n  jump\t// in\ntag_4:\n    /* \"contracts/SharedWallet.sol\":111:758  contract SharedWallet is Ownable {... */\n  jump(tag_8)\n    /* \"@openzeppelin/contracts/utils/Context.sol\":640:736  function _msgSender() internal view virtual returns (address) {... */\ntag_6:\n    /* \"@openzeppelin/contracts/utils/Context.sol\":693:700  address */\n  0x00\n    /* \"@openzeppelin/contracts/utils/Context.sol\":719:729  msg.sender */\n  caller\n    /* \"@openzeppelin/contracts/utils/Context.sol\":712:729  return msg.sender */\n  swap1\n  pop\n    /* \"@openzeppelin/contracts/utils/Context.sol\":640:736  function _msgSender() internal view virtual returns (address) {... */\n  swap1\n  jump\t// out\n    /* \"@openzeppelin/contracts/access/Ownable.sol\":2433:2620  function _transferOwnership(address newOwner) internal virtual {... */\ntag_7:\n    /* \"@openzeppelin/contracts/access/Ownable.sol\":2506:2522  address oldOwner */\n  0x00\n    /* \"@openzeppelin/contracts/access/Ownable.sol\":2525:2531  _owner */\n  dup1\n  0x00\n  swap1\n  sload\n  swap1\n  0x0100\n  exp\n  swap1\n  div\n  0xffffffffffffffffffffffffffffffffffffffff\n  and\n    /* \"@openzeppelin/contracts/access/Ownable.sol\":2506:2531  address oldOwner = _owner */\n  swap1\n  pop\n    /* \"@openzeppelin/contracts/access/Ownable.sol\":2550:2558  newOwner */\n  dup2\n    /* \"@openzeppelin/contracts/access/Ownable.sol\":2541:2547  _owner */\n  0x00\n  dup1\n    /* \"@openzeppelin/contracts/access/Ownable.sol\":2541:2558  _owner = newOwner */\n  0x0100\n  exp\n  dup2\n  sload\n  dup2\n  0xffffffffffffffffffffffffffffffffffffffff\n  mul\n  not\n  and\n  swap1\n  dup4\n  0xffffffffffffffffffffffffffffffffffffffff\n  and\n  mul\n  or\n  swap1\n  sstore\n  pop\n    /* \"@openzeppelin/contracts/access/Ownable.sol\":2604:2612  newOwner */\n  dup2\n    /* \"@openzeppelin/contracts/access/Ownable.sol\":2573:2613  OwnershipTransferred(oldOwner, newOwner) */\n  0xffffffffffffffffffffffffffffffffffffffff\n  and\n    /* \"@openzeppelin/contracts/access/Ownable.sol\":2594:2602  oldOwner */\n  dup2\n    /* \"@openzeppelin/contracts/access/Ownable.sol\":2573:2613  OwnershipTransferred(oldOwner, newOwner) */\n  0xffffffffffffffffffffffffffffffffffffffff\n  and\n  0x8be0079c531659141344cd1fd0a4f28419497f9722a3daafe3b4186f6b6457e0\n  mload(0x40)\n  mload(0x40)\n  dup1\n  swap2\n  sub\n  swap1\n  log3\n    /* \"@openzeppelin/contracts/access/Ownable.sol\":2496:2620  {... */\n  pop\n    /* \"@openzeppelin/contracts/access/Ownable.sol\":2433:2620  function _transferOwnership(address newOwner) internal virtual {... */\n  pop\n  jump\t// out\n    /* \"contracts/SharedWallet.sol\":111:758  contract SharedWallet is Ownable {... */\ntag_8:\n  dataSize(sub_0)\n  dup1\n  dataOffset(sub_0)\n  0x00\n  codecopy\n  0x00\n  return\nstop\n\nsub_0: assembly {\n        /* \"contracts/SharedWallet.sol\":111:758  contract SharedWallet is Ownable {... */\n      mstore(0x40, 0x80)\n      callvalue\n      dup1\n      iszero\n      tag_1\n      jumpi\n      0x00\n      dup1\n      revert\n    tag_1:\n      pop\n      jumpi(tag_2, lt(calldatasize, 0x04))\n      shr(0xe0, calldataload(0x00))\n      dup1\n      0x08ae4b0c\n      eq\n      tag_3\n      jumpi\n      dup1\n      0x17b3fe16\n      eq\n      tag_4\n      jumpi\n      dup1\n      0x715018a6\n      eq\n      tag_5\n      jumpi\n      dup1\n      0x8da5cb5b\n      eq\n      tag_6\n      jumpi\n      dup1\n      0xf2fde38b\n      eq\n      tag_7\n      jumpi\n    tag_2:\n      0x00\n      dup1\n      revert\n        /* \"contracts/SharedWallet.sol\":150:189  mapping(address => uint) public members */\n    tag_3:\n      tag_8\n      0x04\n      dup1\n      calldatasize\n      sub\n      dup2\n      add\n      swap1\n      tag_9\n      swap2\n      swap1\n      tag_10\n      jump\t// in\n    tag_9:\n      tag_11\n      jump\t// in\n    tag_8:\n      mload(0x40)\n      tag_12\n      swap2\n      swap1\n      tag_13\n      jump\t// in\n    tag_12:\n      mload(0x40)\n      dup1\n      swap2\n      sub\n      swap1\n      return\n        /* \"contracts/SharedWallet.sol\":436:535  function addLimit(uint _limit, address _member) external {... */\n    tag_4:\n      tag_14\n      0x04\n      dup1\n      calldatasize\n      sub\n      dup2\n      add\n      swap1\n      tag_15\n      swap2\n      swap1\n      tag_16\n      jump\t// in\n    tag_15:\n      tag_17\n      jump\t// in\n    tag_14:\n      stop\n        /* \"contracts/SharedWallet.sol\":654:756  function renounceOwnership() override public view onlyOwner {... */\n    tag_5:\n      tag_18\n      tag_19\n      jump\t// in\n    tag_18:\n      stop\n        /* \"@openzeppelin/contracts/access/Ownable.sol\":1201:1286  function owner() public view virtual returns (address) {... */\n    tag_6:\n      tag_20\n      tag_21\n      jump\t// in\n    tag_20:\n      mload(0x40)\n      tag_22\n      swap2\n      swap1\n      tag_23\n      jump\t// in\n    tag_22:\n      mload(0x40)\n      dup1\n      swap2\n      sub\n      swap1\n      return\n        /* \"@openzeppelin/contracts/access/Ownable.sol\":2081:2279  function transferOwnership(address newOwner) public virtual onlyOwner {... */\n    tag_7:\n      tag_24\n      0x04\n      dup1\n      calldatasize\n      sub\n      dup2\n      add\n      swap1\n      tag_25\n      swap2\n      swap1\n      tag_10\n      jump\t// in\n    tag_25:\n      tag_26\n      jump\t// in\n    tag_24:\n      stop\n        /* \"contracts/SharedWallet.sol\":150:189  mapping(address => uint) public members */\n    tag_11:\n      mstore(0x20, 0x01)\n      dup1\n      0x00\n      mstore\n      keccak256(0x00, 0x40)\n      0x00\n      swap2\n      pop\n      swap1\n      pop\n      sload\n      dup2\n      jump\t// out\n        /* \"contracts/SharedWallet.sol\":436:535  function addLimit(uint _limit, address _member) external {... */\n    tag_17:\n        /* \"contracts/SharedWallet.sol\":522:528  _limit */\n      dup2\n        /* \"contracts/SharedWallet.sol\":503:510  members */\n      0x01\n        /* \"contracts/SharedWallet.sol\":503:519  members[_member] */\n      0x00\n        /* \"contracts/SharedWallet.sol\":511:518  _member */\n      dup4\n        /* \"contracts/SharedWallet.sol\":503:519  members[_member] */\n      0xffffffffffffffffffffffffffffffffffffffff\n      and\n      0xffffffffffffffffffffffffffffffffffffffff\n      and\n      dup2\n      mstore\n      0x20\n      add\n      swap1\n      dup2\n      mstore\n      0x20\n      add\n      0x00\n      keccak256\n        /* \"contracts/SharedWallet.sol\":503:528  members[_member] = _limit */\n      dup2\n      swap1\n      sstore\n      pop\n        /* \"contracts/SharedWallet.sol\":436:535  function addLimit(uint _limit, address _member) external {... */\n      pop\n      pop\n      jump\t// out\n        /* \"contracts/SharedWallet.sol\":654:756  function renounceOwnership() override public view onlyOwner {... */\n    tag_19:\n        /* \"@openzeppelin/contracts/access/Ownable.sol\":1094:1107  _checkOwner() */\n      tag_29\n        /* \"@openzeppelin/contracts/access/Ownable.sol\":1094:1105  _checkOwner */\n      tag_30\n        /* \"@openzeppelin/contracts/access/Ownable.sol\":1094:1107  _checkOwner() */\n      jump\t// in\n    tag_29:\n        /* \"contracts/SharedWallet.sol\":724:749  revert(\"Can't renounce!\") */\n      mload(0x40)\n      0x08c379a000000000000000000000000000000000000000000000000000000000\n      dup2\n      mstore\n      0x04\n      add\n      tag_32\n      swap1\n      tag_33\n      jump\t// in\n    tag_32:\n      mload(0x40)\n      dup1\n      swap2\n      sub\n      swap1\n      revert\n        /* \"@openzeppelin/contracts/access/Ownable.sol\":1201:1286  function owner() public view virtual returns (address) {... */\n    tag_21:\n        /* \"@openzeppelin/contracts/access/Ownable.sol\":1247:1254  address */\n      0x00\n        /* \"@openzeppelin/contracts/access/Ownable.sol\":1273:1279  _owner */\n      dup1\n      0x00\n      swap1\n      sload\n      swap1\n      0x0100\n      exp\n      swap1\n      div\n      0xffffffffffffffffffffffffffffffffffffffff\n      and\n        /* \"@openzeppelin/contracts/access/Ownable.sol\":1266:1279  return _owner */\n      swap1\n      pop\n        /* \"@openzeppelin/contracts/access/Ownable.sol\":1201:1286  function owner() public view virtual returns (address) {... */\n      swap1\n      jump\t// out\n        /* \"@openzeppelin/contracts/access/Ownable.sol\":2081:2279  function transferOwnership(address newOwner) public virtual onlyOwner {... */\n    tag_26:\n        /* \"@openzeppelin/contracts/access/Ownable.sol\":1094:1107  _checkOwner() */\n      tag_36\n        /* \"@openzeppelin/contracts/access/Ownable.sol\":1094:1105  _checkOwner */\n      tag_30\n        /* \"@openzeppelin/contracts/access/Ownable.sol\":1094:1107  _checkOwner() */\n      jump\t// in\n    tag_36:\n        /* \"@openzeppelin/contracts/access/Ownable.sol\":2189:2190  0 */\n      0x00\n        /* \"@openzeppelin/contracts/access/Ownable.sol\":2169:2191  newOwner != address(0) */\n      0xffffffffffffffffffffffffffffffffffffffff\n      and\n        /* \"@openzeppelin/contracts/access/Ownable.sol\":2169:2177  newOwner */\n      dup2\n        /* \"@openzeppelin/contracts/access/Ownable.sol\":2169:2191  newOwner != address(0) */\n      0xffffffffffffffffffffffffffffffffffffffff\n      and\n      eq\n      iszero\n        /* \"@openzeppelin/contracts/access/Ownable.sol\":2161:2234  require(newOwner != address(0), \"Ownable: new owner is the zero address\") */\n      tag_38\n      jumpi\n      mload(0x40)\n      0x08c379a000000000000000000000000000000000000000000000000000000000\n      dup2\n      mstore\n      0x04\n      add\n      tag_39\n      swap1\n      tag_40\n      jump\t// in\n    tag_39:\n      mload(0x40)\n      dup1\n      swap2\n      sub\n      swap1\n      revert\n    tag_38:\n        /* \"@openzeppelin/contracts/access/Ownable.sol\":2244:2272  _transferOwnership(newOwner) */\n      tag_41\n        /* \"@openzeppelin/contracts/access/Ownable.sol\":2263:2271  newOwner */\n      dup2\n        /* \"@openzeppelin/contracts/access/Ownable.sol\":2244:2262  _transferOwnership */\n      tag_42\n        /* \"@openzeppelin/contracts/access/Ownable.sol\":2244:2272  _transferOwnership(newOwner) */\n      jump\t// in\n    tag_41:\n        /* \"@openzeppelin/contracts/access/Ownable.sol\":2081:2279  function transferOwnership(address newOwner) public virtual onlyOwner {... */\n      pop\n      jump\t// out\n        /* \"@openzeppelin/contracts/access/Ownable.sol\":1359:1489  function _checkOwner() internal view virtual {... */\n    tag_30:\n        /* \"@openzeppelin/contracts/access/Ownable.sol\":1433:1445  _msgSender() */\n      tag_44\n        /* \"@openzeppelin/contracts/access/Ownable.sol\":1433:1443  _msgSender */\n      tag_45\n        /* \"@openzeppelin/contracts/access/Ownable.sol\":1433:1445  _msgSender() */\n      jump\t// in\n    tag_44:\n        /* \"@openzeppelin/contracts/access/Ownable.sol\":1422:1445  owner() == _msgSender() */\n      0xffffffffffffffffffffffffffffffffffffffff\n      and\n        /* \"@openzeppelin/contracts/access/Ownable.sol\":1422:1429  owner() */\n      tag_46\n        /* \"@openzeppelin/contracts/access/Ownable.sol\":1422:1427  owner */\n      tag_21\n        /* \"@openzeppelin/contracts/access/Ownable.sol\":1422:1429  owner() */\n      jump\t// in\n    tag_46:\n        /* \"@openzeppelin/contracts/access/Ownable.sol\":1422:1445  owner() == _msgSender() */\n      0xffffffffffffffffffffffffffffffffffffffff\n      and\n      eq\n        /* \"@openzeppelin/contracts/access/Ownable.sol\":1414:1482  require(owner() == _msgSender(), \"Ownable: caller is not the owner\") */\n      tag_47\n      jumpi\n      mload(0x40)\n      0x08c379a000000000000000000000000000000000000000000000000000000000\n      dup2\n      mstore\n      0x04\n      add\n      tag_48\n      swap1\n      tag_49\n      jump\t// in\n    tag_48:\n      mload(0x40)\n      dup1\n      swap2\n      sub\n      swap1\n      revert\n    tag_47:\n        /* \"@openzeppelin/contracts/access/Ownable.sol\":1359:1489  function _checkOwner() internal view virtual {... */\n      jump\t// out\n        /* \"@openzeppelin/contracts/access/Ownable.sol\":2433:2620  function _transferOwnership(address newOwner) internal virtual {... */\n    tag_42:\n        /* \"@openzeppelin/contracts/access/Ownable.sol\":2506:2522  address oldOwner */\n      0x00\n        /* \"@openzeppelin/contracts/access/Ownable.sol\":2525:2531  _owner */\n      dup1\n      0x00\n      swap1\n      sload\n      swap1\n      0x0100\n      exp\n      swap1\n      div\n      0xffffffffffffffffffffffffffffffffffffffff\n      and\n        /* \"@openzeppelin/contracts/access/Ownable.sol\":2506:2531  address oldOwner = _owner */\n      swap1\n      pop\n        /* \"@openzeppelin/contracts/access/Ownable.sol\":2550:2558  newOwner */\n      dup2\n        /* \"@openzeppelin/contracts/access/Ownable.sol\":2541:2547  _owner */\n      0x00\n      dup1\n        /* \"@openzeppelin/contracts/access/Ownable.sol\":2541:2558  _owner = newOwner */\n      0x0100\n      exp\n      dup2\n      sload\n      dup2\n      0xffffffffffffffffffffffffffffffffffffffff\n      mul\n      not\n      and\n      swap1\n      dup4\n      0xffffffffffffffffffffffffffffffffffffffff\n      and\n      mul\n      or\n      swap1\n      sstore\n      pop\n        /* \"@openzeppelin/contracts/access/Ownable.sol\":2604:2612  newOwner */\n      dup2\n        /* \"@openzeppelin/contracts/access/Ownable.sol\":2573:2613  OwnershipTransferred(oldOwner, newOwner) */\n      0xffffffffffffffffffffffffffffffffffffffff\n      and\n        /* \"@openzeppelin/contracts/access/Ownable.sol\":2594:2602  oldOwner */\n      dup2\n        /* \"@openzeppelin/contracts/access/Ownable.sol\":2573:2613  OwnershipTransferred(oldOwner, newOwner) */\n      0xffffffffffffffffffffffffffffffffffffffff\n      and\n      0x8be0079c531659141344cd1fd0a4f28419497f9722a3daafe3b4186f6b6457e0\n      mload(0x40)\n      mload(0x40)\n      dup1\n      swap2\n      sub\n      swap1\n      log3\n        /* \"@openzeppelin/contracts/access/Ownable.sol\":2496:2620  {... */\n      pop\n        /* \"@openzeppelin/contracts/access/Ownable.sol\":2433:2620  function _transferOwnership(address newOwner) internal virtual {... */\n      pop\n      jump\t// out\n        /* \"@openzeppelin/contracts/utils/Context.sol\":640:736  function _msgSender() internal view virtual returns (address) {... */\n    tag_45:\n        /* \"@openzeppelin/contracts/utils/Context.sol\":693:700  address */\n      0x00\n        /* \"@openzeppelin/contracts/utils/Context.sol\":719:729  msg.sender */\n      caller\n        /* \"@openzeppelin/contracts/utils/Context.sol\":712:729  return msg.sender */\n      swap1\n      pop\n        /* \"@openzeppelin/contracts/utils/Context.sol\":640:736  function _msgSender() internal view virtual returns (address) {... */\n      swap1\n      jump\t// out\n        /* \"#utility.yul\":7:146   */\n    tag_53:\n        /* \"#utility.yul\":53:58   */\n      0x00\n        /* \"#utility.yul\":91:97   */\n      dup2\n        /* \"#utility.yul\":78:98   */\n      calldataload\n        /* \"#utility.yul\":69:98   */\n      swap1\n      pop\n        /* \"#utility.yul\":107:140   */\n      tag_55\n        /* \"#utility.yul\":134:139   */\n      dup2\n        /* \"#utility.yul\":107:140   */\n      tag_56\n      jump\t// in\n    tag_55:\n        /* \"#utility.yul\":7:146   */\n      swap3\n      swap2\n      pop\n      pop\n      jump\t// out\n        /* \"#utility.yul\":152:291   */\n    tag_57:\n        /* \"#utility.yul\":198:203   */\n      0x00\n        /* \"#utility.yul\":236:242   */\n      dup2\n        /* \"#utility.yul\":223:243   */\n      calldataload\n        /* \"#utility.yul\":214:243   */\n      swap1\n      pop\n        /* \"#utility.yul\":252:285   */\n      tag_59\n        /* \"#utility.yul\":279:284   */\n      dup2\n        /* \"#utility.yul\":252:285   */\n      tag_60\n      jump\t// in\n    tag_59:\n        /* \"#utility.yul\":152:291   */\n      swap3\n      swap2\n      pop\n      pop\n      jump\t// out\n        /* \"#utility.yul\":297:626   */\n    tag_10:\n        /* \"#utility.yul\":356:362   */\n      0x00\n        /* \"#utility.yul\":405:407   */\n      0x20\n        /* \"#utility.yul\":393:402   */\n      dup3\n        /* \"#utility.yul\":384:391   */\n      dup5\n        /* \"#utility.yul\":380:403   */\n      sub\n        /* \"#utility.yul\":376:408   */\n      slt\n        /* \"#utility.yul\":373:492   */\n      iszero\n      tag_62\n      jumpi\n        /* \"#utility.yul\":411:490   */\n      tag_63\n      tag_64\n      jump\t// in\n    tag_63:\n        /* \"#utility.yul\":373:492   */\n    tag_62:\n        /* \"#utility.yul\":531:532   */\n      0x00\n        /* \"#utility.yul\":556:609   */\n      tag_65\n        /* \"#utility.yul\":601:608   */\n      dup5\n        /* \"#utility.yul\":592:598   */\n      dup3\n        /* \"#utility.yul\":581:590   */\n      dup6\n        /* \"#utility.yul\":577:599   */\n      add\n        /* \"#utility.yul\":556:609   */\n      tag_53\n      jump\t// in\n    tag_65:\n        /* \"#utility.yul\":546:609   */\n      swap2\n      pop\n        /* \"#utility.yul\":502:619   */\n      pop\n        /* \"#utility.yul\":297:626   */\n      swap3\n      swap2\n      pop\n      pop\n      jump\t// out\n        /* \"#utility.yul\":632:1106   */\n    tag_16:\n        /* \"#utility.yul\":700:706   */\n      0x00\n        /* \"#utility.yul\":708:714   */\n      dup1\n        /* \"#utility.yul\":757:759   */\n      0x40\n        /* \"#utility.yul\":745:754   */\n      dup4\n        /* \"#utility.yul\":736:743   */\n      dup6\n        /* \"#utility.yul\":732:755   */\n      sub\n        /* \"#utility.yul\":728:760   */\n      slt\n        /* \"#utility.yul\":725:844   */\n      iszero\n      tag_67\n      jumpi\n        /* \"#utility.yul\":763:842   */\n      tag_68\n      tag_64\n      jump\t// in\n    tag_68:\n        /* \"#utility.yul\":725:844   */\n    tag_67:\n        /* \"#utility.yul\":883:884   */\n      0x00\n        /* \"#utility.yul\":908:961   */\n      tag_69\n        /* \"#utility.yul\":953:960   */\n      dup6\n        /* \"#utility.yul\":944:950   */\n      dup3\n        /* \"#utility.yul\":933:942   */\n      dup7\n        /* \"#utility.yul\":929:951   */\n      add\n        /* \"#utility.yul\":908:961   */\n      tag_57\n      jump\t// in\n    tag_69:\n        /* \"#utility.yul\":898:961   */\n      swap3\n      pop\n        /* \"#utility.yul\":854:971   */\n      pop\n        /* \"#utility.yul\":1010:1012   */\n      0x20\n        /* \"#utility.yul\":1036:1089   */\n      tag_70\n        /* \"#utility.yul\":1081:1088   */\n      dup6\n        /* \"#utility.yul\":1072:1078   */\n      dup3\n        /* \"#utility.yul\":1061:1070   */\n      dup7\n        /* \"#utility.yul\":1057:1079   */\n      add\n        /* \"#utility.yul\":1036:1089   */\n      tag_53\n      jump\t// in\n    tag_70:\n        /* \"#utility.yul\":1026:1089   */\n      swap2\n      pop\n        /* \"#utility.yul\":981:1099   */\n      pop\n        /* \"#utility.yul\":632:1106   */\n      swap3\n      pop\n      swap3\n      swap1\n      pop\n      jump\t// out\n        /* \"#utility.yul\":1112:1230   */\n    tag_71:\n        /* \"#utility.yul\":1199:1223   */\n      tag_73\n        /* \"#utility.yul\":1217:1222   */\n      dup2\n        /* \"#utility.yul\":1199:1223   */\n      tag_74\n      jump\t// in\n    tag_73:\n        /* \"#utility.yul\":1194:1197   */\n      dup3\n        /* \"#utility.yul\":1187:1224   */\n      mstore\n        /* \"#utility.yul\":1112:1230   */\n      pop\n      pop\n      jump\t// out\n        /* \"#utility.yul\":1236:1602   */\n    tag_75:\n        /* \"#utility.yul\":1378:1381   */\n      0x00\n        /* \"#utility.yul\":1399:1466   */\n      tag_77\n        /* \"#utility.yul\":1463:1465   */\n      0x26\n        /* \"#utility.yul\":1458:1461   */\n      dup4\n        /* \"#utility.yul\":1399:1466   */\n      tag_78\n      jump\t// in\n    tag_77:\n        /* \"#utility.yul\":1392:1466   */\n      swap2\n      pop\n        /* \"#utility.yul\":1475:1568   */\n      tag_79\n        /* \"#utility.yul\":1564:1567   */\n      dup3\n        /* \"#utility.yul\":1475:1568   */\n      tag_80\n      jump\t// in\n    tag_79:\n        /* \"#utility.yul\":1593:1595   */\n      0x40\n        /* \"#utility.yul\":1588:1591   */\n      dup3\n        /* \"#utility.yul\":1584:1596   */\n      add\n        /* \"#utility.yul\":1577:1596   */\n      swap1\n      pop\n        /* \"#utility.yul\":1236:1602   */\n      swap2\n      swap1\n      pop\n      jump\t// out\n        /* \"#utility.yul\":1608:1974   */\n    tag_81:\n        /* \"#utility.yul\":1750:1753   */\n      0x00\n        /* \"#utility.yul\":1771:1838   */\n      tag_83\n        /* \"#utility.yul\":1835:1837   */\n      0x0f\n        /* \"#utility.yul\":1830:1833   */\n      dup4\n        /* \"#utility.yul\":1771:1838   */\n      tag_78\n      jump\t// in\n    tag_83:\n        /* \"#utility.yul\":1764:1838   */\n      swap2\n      pop\n        /* \"#utility.yul\":1847:1940   */\n      tag_84\n        /* \"#utility.yul\":1936:1939   */\n      dup3\n        /* \"#utility.yul\":1847:1940   */\n      tag_85\n      jump\t// in\n    tag_84:\n        /* \"#utility.yul\":1965:1967   */\n      0x20\n        /* \"#utility.yul\":1960:1963   */\n      dup3\n        /* \"#utility.yul\":1956:1968   */\n      add\n        /* \"#utility.yul\":1949:1968   */\n      swap1\n      pop\n        /* \"#utility.yul\":1608:1974   */\n      swap2\n      swap1\n      pop\n      jump\t// out\n        /* \"#utility.yul\":1980:2346   */\n    tag_86:\n        /* \"#utility.yul\":2122:2125   */\n      0x00\n        /* \"#utility.yul\":2143:2210   */\n      tag_88\n        /* \"#utility.yul\":2207:2209   */\n      0x20\n        /* \"#utility.yul\":2202:2205   */\n      dup4\n        /* \"#utility.yul\":2143:2210   */\n      tag_78\n      jump\t// in\n    tag_88:\n        /* \"#utility.yul\":2136:2210   */\n      swap2\n      pop\n        /* \"#utility.yul\":2219:2312   */\n      tag_89\n        /* \"#utility.yul\":2308:2311   */\n      dup3\n        /* \"#utility.yul\":2219:2312   */\n      tag_90\n      jump\t// in\n    tag_89:\n        /* \"#utility.yul\":2337:2339   */\n      0x20\n        /* \"#utility.yul\":2332:2335   */\n      dup3\n        /* \"#utility.yul\":2328:2340   */\n      add\n        /* \"#utility.yul\":2321:2340   */\n      swap1\n      pop\n        /* \"#utility.yul\":1980:2346   */\n      swap2\n      swap1\n      pop\n      jump\t// out\n        /* \"#utility.yul\":2352:2470   */\n    tag_91:\n        /* \"#utility.yul\":2439:2463   */\n      tag_93\n        /* \"#utility.yul\":2457:2462   */\n      dup2\n        /* \"#utility.yul\":2439:2463   */\n      tag_94\n      jump\t// in\n    tag_93:\n        /* \"#utility.yul\":2434:2437   */\n      dup3\n        /* \"#utility.yul\":2427:2464   */\n      mstore\n        /* \"#utility.yul\":2352:2470   */\n      pop\n      pop\n      jump\t// out\n        /* \"#utility.yul\":2476:2698   */\n    tag_23:\n        /* \"#utility.yul\":2569:2573   */\n      0x00\n        /* \"#utility.yul\":2607:2609   */\n      0x20\n        /* \"#utility.yul\":2596:2605   */\n      dup3\n        /* \"#utility.yul\":2592:2610   */\n      add\n        /* \"#utility.yul\":2584:2610   */\n      swap1\n      pop\n        /* \"#utility.yul\":2620:2691   */\n      tag_96\n        /* \"#utility.yul\":2688:2689   */\n      0x00\n        /* \"#utility.yul\":2677:2686   */\n      dup4\n        /* \"#utility.yul\":2673:2690   */\n      add\n        /* \"#utility.yul\":2664:2670   */\n      dup5\n        /* \"#utility.yul\":2620:2691   */\n      tag_71\n      jump\t// in\n    tag_96:\n        /* \"#utility.yul\":2476:2698   */\n      swap3\n      swap2\n      pop\n      pop\n      jump\t// out\n        /* \"#utility.yul\":2704:3123   */\n    tag_40:\n        /* \"#utility.yul\":2870:2874   */\n      0x00\n        /* \"#utility.yul\":2908:2910   */\n      0x20\n        /* \"#utility.yul\":2897:2906   */\n      dup3\n        /* \"#utility.yul\":2893:2911   */\n      add\n        /* \"#utility.yul\":2885:2911   */\n      swap1\n      pop\n        /* \"#utility.yul\":2957:2966   */\n      dup2\n        /* \"#utility.yul\":2951:2955   */\n      dup2\n        /* \"#utility.yul\":2947:2967   */\n      sub\n        /* \"#utility.yul\":2943:2944   */\n      0x00\n        /* \"#utility.yul\":2932:2941   */\n      dup4\n        /* \"#utility.yul\":2928:2945   */\n      add\n        /* \"#utility.yul\":2921:2968   */\n      mstore\n        /* \"#utility.yul\":2985:3116   */\n      tag_98\n        /* \"#utility.yul\":3111:3115   */\n      dup2\n        /* \"#utility.yul\":2985:3116   */\n      tag_75\n      jump\t// in\n    tag_98:\n        /* \"#utility.yul\":2977:3116   */\n      swap1\n      pop\n        /* \"#utility.yul\":2704:3123   */\n      swap2\n      swap1\n      pop\n      jump\t// out\n        /* \"#utility.yul\":3129:3548   */\n    tag_33:\n        /* \"#utility.yul\":3295:3299   */\n      0x00\n        /* \"#utility.yul\":3333:3335   */\n      0x20\n        /* \"#utility.yul\":3322:3331   */\n      dup3\n        /* \"#utility.yul\":3318:3336   */\n      add\n        /* \"#utility.yul\":3310:3336   */\n      swap1\n      pop\n        /* \"#utility.yul\":3382:3391   */\n      dup2\n        /* \"#utility.yul\":3376:3380   */\n      dup2\n        /* \"#utility.yul\":3372:3392   */\n      sub\n        /* \"#utility.yul\":3368:3369   */\n      0x00\n        /* \"#utility.yul\":3357:3366   */\n      dup4\n        /* \"#utility.yul\":3353:3370   */\n      add\n        /* \"#utility.yul\":3346:3393   */\n      mstore\n        /* \"#utility.yul\":3410:3541   */\n      tag_100\n        /* \"#utility.yul\":3536:3540   */\n      dup2\n        /* \"#utility.yul\":3410:3541   */\n      tag_81\n      jump\t// in\n    tag_100:\n        /* \"#utility.yul\":3402:3541   */\n      swap1\n      pop\n        /* \"#utility.yul\":3129:3548   */\n      swap2\n      swap1\n      pop\n      jump\t// out\n        /* \"#utility.yul\":3554:3973   */\n    tag_49:\n        /* \"#utility.yul\":3720:3724   */\n      0x00\n        /* \"#utility.yul\":3758:3760   */\n      0x20\n        /* \"#utility.yul\":3747:3756   */\n      dup3\n        /* \"#utility.yul\":3743:3761   */\n      add\n        /* \"#utility.yul\":3735:3761   */\n      swap1\n      pop\n        /* \"#utility.yul\":3807:3816   */\n      dup2\n        /* \"#utility.yul\":3801:3805   */\n      dup2\n        /* \"#utility.yul\":3797:3817   */\n      sub\n        /* \"#utility.yul\":3793:3794   */\n      0x00\n        /* \"#utility.yul\":3782:3791   */\n      dup4\n        /* \"#utility.yul\":3778:3795   */\n      add\n        /* \"#utility.yul\":3771:3818   */\n      mstore\n        /* \"#utility.yul\":3835:3966   */\n      tag_102\n        /* \"#utility.yul\":3961:3965   */\n      dup2\n        /* \"#utility.yul\":3835:3966   */\n      tag_86\n      jump\t// in\n    tag_102:\n        /* \"#utility.yul\":3827:3966   */\n      swap1\n      pop\n        /* \"#utility.yul\":3554:3973   */\n      swap2\n      swap1\n      pop\n      jump\t// out\n        /* \"#utility.yul\":3979:4201   */\n    tag_13:\n        /* \"#utility.yul\":4072:4076   */\n      0x00\n        /* \"#utility.yul\":4110:4112   */\n      0x20\n        /* \"#utility.yul\":4099:4108   */\n      dup3\n        /* \"#utility.yul\":4095:4113   */\n      add\n        /* \"#utility.yul\":4087:4113   */\n      swap1\n      pop\n        /* \"#utility.yul\":4123:4194   */\n      tag_104\n        /* \"#utility.yul\":4191:4192   */\n      0x00\n        /* \"#utility.yul\":4180:4189   */\n      dup4\n        /* \"#utility.yul\":4176:4193   */\n      add\n        /* \"#utility.yul\":4167:4173   */\n      dup5\n        /* \"#utility.yul\":4123:4194   */\n      tag_91\n      jump\t// in\n    tag_104:\n        /* \"#utility.yul\":3979:4201   */\n      swap3\n      swap2\n      pop\n      pop\n      jump\t// out\n        /* \"#utility.yul\":4288:4457   */\n    tag_78:\n        /* \"#utility.yul\":4372:4383   */\n      0x00\n        /* \"#utility.yul\":4406:4412   */\n      dup3\n        /* \"#utility.yul\":4401:4404   */\n      dup3\n        /* \"#utility.yul\":4394:4413   */\n      mstore\n        /* \"#utility.yul\":4446:4450   */\n      0x20\n        /* \"#utility.yul\":4441:4444   */\n      dup3\n        /* \"#utility.yul\":4437:4451   */\n      add\n        /* \"#utility.yul\":4422:4451   */\n      swap1\n      pop\n        /* \"#utility.yul\":4288:4457   */\n      swap3\n      swap2\n      pop\n      pop\n      jump\t// out\n        /* \"#utility.yul\":4463:4559   */\n    tag_74:\n        /* \"#utility.yul\":4500:4507   */\n      0x00\n        /* \"#utility.yul\":4529:4553   */\n      tag_109\n        /* \"#utility.yul\":4547:4552   */\n      dup3\n        /* \"#utility.yul\":4529:4553   */\n      tag_110\n      jump\t// in\n    tag_109:\n        /* \"#utility.yul\":4518:4553   */\n      swap1\n      pop\n        /* \"#utility.yul\":4463:4559   */\n      swap2\n      swap1\n      pop\n      jump\t// out\n        /* \"#utility.yul\":4565:4691   */\n    tag_110:\n        /* \"#utility.yul\":4602:4609   */\n      0x00\n        /* \"#utility.yul\":4642:4684   */\n      0xffffffffffffffffffffffffffffffffffffffff\n        /* \"#utility.yul\":4635:4640   */\n      dup3\n        /* \"#utility.yul\":4631:4685   */\n      and\n        /* \"#utility.yul\":4620:4685   */\n      swap1\n      pop\n        /* \"#utility.yul\":4565:4691   */\n      swap2\n      swap1\n      pop\n      jump\t// out\n        /* \"#utility.yul\":4697:4774   */\n    tag_94:\n        /* \"#utility.yul\":4734:4741   */\n      0x00\n        /* \"#utility.yul\":4763:4768   */\n      dup2\n        /* \"#utility.yul\":4752:4768   */\n      swap1\n      pop\n        /* \"#utility.yul\":4697:4774   */\n      swap2\n      swap1\n      pop\n      jump\t// out\n        /* \"#utility.yul\":4903:5020   */\n    tag_64:\n        /* \"#utility.yul\":5012:5013   */\n      0x00\n        /* \"#utility.yul\":5009:5010   */\n      dup1\n        /* \"#utility.yul\":5002:5014   */\n      revert\n        /* \"#utility.yul\":5026:5251   */\n    tag_80:\n        /* \"#utility.yul\":5166:5200   */\n      0x4f776e61626c653a206e6577206f776e657220697320746865207a65726f2061\n        /* \"#utility.yul\":5162:5163   */\n      0x00\n        /* \"#utility.yul\":5154:5160   */\n      dup3\n        /* \"#utility.yul\":5150:5164   */\n      add\n        /* \"#utility.yul\":5143:5201   */\n      mstore\n        /* \"#utility.yul\":5235:5243   */\n      0x6464726573730000000000000000000000000000000000000000000000000000\n        /* \"#utility.yul\":5230:5232   */\n      0x20\n        /* \"#utility.yul\":5222:5228   */\n      dup3\n        /* \"#utility.yul\":5218:5233   */\n      add\n        /* \"#utility.yul\":5211:5244   */\n      mstore\n        /* \"#utility.yul\":5026:5251   */\n      pop\n      jump\t// out\n        /* \"#utility.yul\":5257:5422   */\n    tag_85:\n        /* \"#utility.yul\":5397:5414   */\n      0x43616e27742072656e6f756e6365210000000000000000000000000000000000\n        /* \"#utility.yul\":5393:5394   */\n      0x00\n        /* \"#utility.yul\":5385:5391   */\n      dup3\n        /* \"#utility.yul\":5381:5395   */\n      add\n        /* \"#utility.yul\":5374:5415   */\n      mstore\n        /* \"#utility.yul\":5257:5422   */\n      pop\n      jump\t// out\n        /* \"#utility.yul\":5428:5610   */\n    tag_90:\n        /* \"#utility.yul\":5568:5602   */\n      0x4f776e61626c653a2063616c6c6572206973206e6f7420746865206f776e6572\n        /* \"#utility.yul\":5564:5565   */\n      0x00\n        /* \"#utility.yul\":5556:5562   */\n      dup3\n        /* \"#utility.yul\":5552:5566   */\n      add\n        /* \"#utility.yul\":5545:5603   */\n      mstore\n        /* \"#utility.yul\":5428:5610   */\n      pop\n      jump\t// out\n        /* \"#utility.yul\":5616:5738   */\n    tag_56:\n        /* \"#utility.yul\":5689:5713   */\n      tag_120\n        /* \"#utility.yul\":5707:5712   */\n      dup2\n        /* \"#utility.yul\":5689:5713   */\n      tag_74\n      jump\t// in\n    tag_120:\n        /* \"#utility.yul\":5682:5687   */\n      dup2\n        /* \"#utility.yul\":5679:5714   */\n      eq\n        /* \"#utility.yul\":5669:5732   */\n      tag_121\n      jumpi\n        /* \"#utility.yul\":5728:5729   */\n      0x00\n        /* \"#utility.yul\":5725:5726   */\n      dup1\n        /* \"#utility.yul\":5718:5730   */\n      revert\n        /* \"#utility.yul\":5669:5732   */\n    tag_121:\n        /* \"#utility.yul\":5616:5738   */\n      pop\n      jump\t// out\n        /* \"#utility.yul\":5744:5866   */\n    tag_60:\n        /* \"#utility.yul\":5817:5841   */\n      tag_123\n        /* \"#utility.yul\":5835:5840   */\n      dup2\n        /* \"#utility.yul\":5817:5841   */\n      tag_94\n      jump\t// in\n    tag_123:\n        /* \"#utility.yul\":5810:5815   */\n      dup2\n        /* \"#utility.yul\":5807:5842   */\n      eq\n        /* \"#utility.yul\":5797:5860   */\n      tag_124\n      jumpi\n        /* \"#utility.yul\":5856:5857   */\n      0x00\n        /* \"#utility.yul\":5853:5854   */\n      dup1\n        /* \"#utility.yul\":5846:5858   */\n      revert\n        /* \"#utility.yul\":5797:5860   */\n    tag_124:\n        /* \"#utility.yul\":5744:5866   */\n      pop\n      jump\t// out\n\n    auxdata: 0xa2646970667358221220861c9e26f4a91c5f1bbfe3fb93b604631482197d09da2402e770534b6c2fbb1e64736f6c63430008070033\n}\n",
				"bytecode": {
					"linkReferences": {},
					"object": "608060405234801561001057600080fd5b5061002d61002261003260201b60201c565b61003a60201b60201c565b6100fe565b600033905090565b60008060009054906101000a900473ffffffffffffffffffffffffffffffffffffffff169050816000806101000a81548173ffffffffffffffffffffffffffffffffffffffff021916908373ffffffffffffffffffffffffffffffffffffffff1602179055508173ffffffffffffffffffffffffffffffffffffffff168173ffffffffffffffffffffffffffffffffffffffff167f8be0079c531659141344cd1fd0a4f28419497f9722a3daafe3b4186f6b6457e060405160405180910390a35050565b6106918061010d6000396000f3fe608060405234801561001057600080fd5b50600436106100575760003560e01c806308ae4b0c1461005c57806317b3fe161461008c578063715018a6146100a85780638da5cb5b146100b2578063f2fde38b146100d0575b600080fd5b610076600480360381019061007191906103b0565b6100ec565b604051610083919061051f565b60405180910390f35b6100a660048036038101906100a191906103dd565b610104565b005b6100b061014c565b005b6100ba61018f565b6040516100c791906104a4565b60405180910390f35b6100ea60048036038101906100e591906103b0565b6101b8565b005b60016020528060005260406000206000915090505481565b81600160008373ffffffffffffffffffffffffffffffffffffffff1673ffffffffffffffffffffffffffffffffffffffff168152602001908152602001600020819055505050565b61015461023c565b6040517f08c379a0000000000000000000000000000000000000000000000000000000008152600401610186906104df565b60405180910390fd5b60008060009054906101000a900473ffffffffffffffffffffffffffffffffffffffff16905090565b6101c061023c565b600073ffffffffffffffffffffffffffffffffffffffff168173ffffffffffffffffffffffffffffffffffffffff161415610230576040517f08c379a0000000000000000000000000000000000000000000000000000000008152600401610227906104bf565b60405180910390fd5b610239816102ba565b50565b61024461037e565b73ffffffffffffffffffffffffffffffffffffffff1661026261018f565b73ffffffffffffffffffffffffffffffffffffffff16146102b8576040517f08c379a00000000000000000000000000000000000000000000000000000000081526004016102af906104ff565b60405180910390fd5b565b60008060009054906101000a900473ffffffffffffffffffffffffffffffffffffffff169050816000806101000a81548173ffffffffffffffffffffffffffffffffffffffff021916908373ffffffffffffffffffffffffffffffffffffffff1602179055508173ffffffffffffffffffffffffffffffffffffffff168173ffffffffffffffffffffffffffffffffffffffff167f8be0079c531659141344cd1fd0a4f28419497f9722a3daafe3b4186f6b6457e060405160405180910390a35050565b600033905090565b6000813590506103958161062d565b92915050565b6000813590506103aa81610644565b92915050565b6000602082840312156103c6576103c5610587565b5b60006103d484828501610386565b91505092915050565b600080604083850312156103f4576103f3610587565b5b60006104028582860161039b565b925050602061041385828601610386565b9150509250929050565b6104268161054b565b82525050565b600061043960268361053a565b91506104448261058c565b604082019050919050565b600061045c600f8361053a565b9150610467826105db565b602082019050919050565b600061047f60208361053a565b915061048a82610604565b602082019050919050565b61049e8161057d565b82525050565b60006020820190506104b9600083018461041d565b92915050565b600060208201905081810360008301526104d88161042c565b9050919050565b600060208201905081810360008301526104f88161044f565b9050919050565b6000602082019050818103600083015261051881610472565b9050919050565b60006020820190506105346000830184610495565b92915050565b600082825260208201905092915050565b60006105568261055d565b9050919050565b600073ffffffffffffffffffffffffffffffffffffffff82169050919050565b6000819050919050565b600080fd5b7f4f776e61626c653a206e6577206f776e657220697320746865207a65726f206160008201527f6464726573730000000000000000000000000000000000000000000000000000602082015250565b7f43616e27742072656e6f756e6365210000000000000000000000000000000000600082015250565b7f4f776e61626c653a2063616c6c6572206973206e6f7420746865206f776e6572600082015250565b6106368161054b565b811461064157600080fd5b50565b61064d8161057d565b811461065857600080fd5b5056fea2646970667358221220861c9e26f4a91c5f1bbfe3fb93b604631482197d09da2402e770534b6c2fbb1e64736f6c63430008070033",
					"opcodes": "PUSH1 0x80 PUSH1 0x40 MSTORE CALLVALUE DUP1 ISZERO PUSH2 0x10 JUMPI PUSH1 0x0 DUP1 REVERT JUMPDEST POP PUSH2 0x2D PUSH2 0x22 PUSH2 0x32 PUSH1 0x20 SHL PUSH1 0x20 SHR JUMP JUMPDEST PUSH2 0x3A PUSH1 0x20 SHL PUSH1 0x20 SHR JUMP JUMPDEST PUSH2 0xFE JUMP JUMPDEST PUSH1 0x0 CALLER SWAP1 POP SWAP1 JUMP JUMPDEST PUSH1 0x0 DUP1 PUSH1 0x0 SWAP1 SLOAD SWAP1 PUSH2 0x100 EXP SWAP1 DIV PUSH20 0xFFFFFFFFFFFFFFFFFFFFFFFFFFFFFFFFFFFFFFFF AND SWAP1 POP DUP2 PUSH1 0x0 DUP1 PUSH2 0x100 EXP DUP2 SLOAD DUP2 PUSH20 0xFFFFFFFFFFFFFFFFFFFFFFFFFFFFFFFFFFFFFFFF MUL NOT AND SWAP1 DUP4 PUSH20 0xFFFFFFFFFFFFFFFFFFFFFFFFFFFFFFFFFFFFFFFF AND MUL OR SWAP1 SSTORE POP DUP2 PUSH20 0xFFFFFFFFFFFFFFFFFFFFFFFFFFFFFFFFFFFFFFFF AND DUP2 PUSH20 0xFFFFFFFFFFFFFFFFFFFFFFFFFFFFFFFFFFFFFFFF AND PUSH32 0x8BE0079C531659141344CD1FD0A4F28419497F9722A3DAAFE3B4186F6B6457E0 PUSH1 0x40 MLOAD PUSH1 0x40 MLOAD DUP1 SWAP2 SUB SWAP1 LOG3 POP POP JUMP JUMPDEST PUSH2 0x691 DUP1 PUSH2 0x10D PUSH1 0x0 CODECOPY PUSH1 0x0 RETURN INVALID PUSH1 0x80 PUSH1 0x40 MSTORE CALLVALUE DUP1 ISZERO PUSH2 0x10 JUMPI PUSH1 0x0 DUP1 REVERT JUMPDEST POP PUSH1 0x4 CALLDATASIZE LT PUSH2 0x57 JUMPI PUSH1 0x0 CALLDATALOAD PUSH1 0xE0 SHR DUP1 PUSH4 0x8AE4B0C EQ PUSH2 0x5C JUMPI DUP1 PUSH4 0x17B3FE16 EQ PUSH2 0x8C JUMPI DUP1 PUSH4 0x715018A6 EQ PUSH2 0xA8 JUMPI DUP1 PUSH4 0x8DA5CB5B EQ PUSH2 0xB2 JUMPI DUP1 PUSH4 0xF2FDE38B EQ PUSH2 0xD0 JUMPI JUMPDEST PUSH1 0x0 DUP1 REVERT JUMPDEST PUSH2 0x76 PUSH1 0x4 DUP1 CALLDATASIZE SUB DUP2 ADD SWAP1 PUSH2 0x71 SWAP2 SWAP1 PUSH2 0x3B0 JUMP JUMPDEST PUSH2 0xEC JUMP JUMPDEST PUSH1 0x40 MLOAD PUSH2 0x83 SWAP2 SWAP1 PUSH2 0x51F JUMP JUMPDEST PUSH1 0x40 MLOAD DUP1 SWAP2 SUB SWAP1 RETURN JUMPDEST PUSH2 0xA6 PUSH1 0x4 DUP1 CALLDATASIZE SUB DUP2 ADD SWAP1 PUSH2 0xA1 SWAP2 SWAP1 PUSH2 0x3DD JUMP JUMPDEST PUSH2 0x104 JUMP JUMPDEST STOP JUMPDEST PUSH2 0xB0 PUSH2 0x14C JUMP JUMPDEST STOP JUMPDEST PUSH2 0xBA PUSH2 0x18F JUMP JUMPDEST PUSH1 0x40 MLOAD PUSH2 0xC7 SWAP2 SWAP1 PUSH2 0x4A4 JUMP JUMPDEST PUSH1 0x40 MLOAD DUP1 SWAP2 SUB SWAP1 RETURN JUMPDEST PUSH2 0xEA PUSH1 0x4 DUP1 CALLDATASIZE SUB DUP2 ADD SWAP1 PUSH2 0xE5 SWAP2 SWAP1 PUSH2 0x3B0 JUMP JUMPDEST PUSH2 0x1B8 JUMP JUMPDEST STOP JUMPDEST PUSH1 0x1 PUSH1 0x20 MSTORE DUP1 PUSH1 0x0 MSTORE PUSH1 0x40 PUSH1 0x0 KECCAK256 PUSH1 0x0 SWAP2 POP SWAP1 POP SLOAD DUP2 JUMP JUMPDEST DUP2 PUSH1 0x1 PUSH1 0x0 DUP4 PUSH20 0xFFFFFFFFFFFFFFFFFFFFFFFFFFFFFFFFFFFFFFFF AND PUSH20 0xFFFFFFFFFFFFFFFFFFFFFFFFFFFFFFFFFFFFFFFF AND DUP2 MSTORE PUSH1 0x20 ADD SWAP1 DUP2 MSTORE PUSH1 0x20 ADD PUSH1 0x0 KECCAK256 DUP2 SWAP1 SSTORE POP POP POP JUMP JUMPDEST PUSH2 0x154 PUSH2 0x23C JUMP JUMPDEST PUSH1 0x40 MLOAD PUSH32 0x8C379A000000000000000000000000000000000000000000000000000000000 DUP2 MSTORE PUSH1 0x4 ADD PUSH2 0x186 SWAP1 PUSH2 0x4DF JUMP JUMPDEST PUSH1 0x40 MLOAD DUP1 SWAP2 SUB SWAP1 REVERT JUMPDEST PUSH1 0x0 DUP1 PUSH1 0x0 SWAP1 SLOAD SWAP1 PUSH2 0x100 EXP SWAP1 DIV PUSH20 0xFFFFFFFFFFFFFFFFFFFFFFFFFFFFFFFFFFFFFFFF AND SWAP1 POP SWAP1 JUMP JUMPDEST PUSH2 0x1C0 PUSH2 0x23C JUMP JUMPDEST PUSH1 0x0 PUSH20 0xFFFFFFFFFFFFFFFFFFFFFFFFFFFFFFFFFFFFFFFF AND DUP2 PUSH20 0xFFFFFFFFFFFFFFFFFFFFFFFFFFFFFFFFFFFFFFFF AND EQ ISZERO PUSH2 0x230 JUMPI PUSH1 0x40 MLOAD PUSH32 0x8C379A000000000000000000000000000000000000000000000000000000000 DUP2 MSTORE PUSH1 0x4 ADD PUSH2 0x227 SWAP1 PUSH2 0x4BF JUMP JUMPDEST PUSH1 0x40 MLOAD DUP1 SWAP2 SUB SWAP1 REVERT JUMPDEST PUSH2 0x239 DUP2 PUSH2 0x2BA JUMP JUMPDEST POP JUMP JUMPDEST PUSH2 0x244 PUSH2 0x37E JUMP JUMPDEST PUSH20 0xFFFFFFFFFFFFFFFFFFFFFFFFFFFFFFFFFFFFFFFF AND PUSH2 0x262 PUSH2 0x18F JUMP JUMPDEST PUSH20 0xFFFFFFFFFFFFFFFFFFFFFFFFFFFFFFFFFFFFFFFF AND EQ PUSH2 0x2B8 JUMPI PUSH1 0x40 MLOAD PUSH32 0x8C379A000000000000000000000000000000000000000000000000000000000 DUP2 MSTORE PUSH1 0x4 ADD PUSH2 0x2AF SWAP1 PUSH2 0x4FF JUMP JUMPDEST PUSH1 0x40 MLOAD DUP1 SWAP2 SUB SWAP1 REVERT JUMPDEST JUMP JUMPDEST PUSH1 0x0 DUP1 PUSH1 0x0 SWAP1 SLOAD SWAP1 PUSH2 0x100 EXP SWAP1 DIV PUSH20 0xFFFFFFFFFFFFFFFFFFFFFFFFFFFFFFFFFFFFFFFF AND SWAP1 POP DUP2 PUSH1 0x0 DUP1 PUSH2 0x100 EXP DUP2 SLOAD DUP2 PUSH20 0xFFFFFFFFFFFFFFFFFFFFFFFFFFFFFFFFFFFFFFFF MUL NOT AND SWAP1 DUP4 PUSH20 0xFFFFFFFFFFFFFFFFFFFFFFFFFFFFFFFFFFFFFFFF AND MUL OR SWAP1 SSTORE POP DUP2 PUSH20 0xFFFFFFFFFFFFFFFFFFFFFFFFFFFFFFFFFFFFFFFF AND DUP2 PUSH20 0xFFFFFFFFFFFFFFFFFFFFFFFFFFFFFFFFFFFFFFFF AND PUSH32 0x8BE0079C531659141344CD1FD0A4F28419497F9722A3DAAFE3B4186F6B6457E0 PUSH1 0x40 MLOAD PUSH1 0x40 MLOAD DUP1 SWAP2 SUB SWAP1 LOG3 POP POP JUMP JUMPDEST PUSH1 0x0 CALLER SWAP1 POP SWAP1 JUMP JUMPDEST PUSH1 0x0 DUP2 CALLDATALOAD SWAP1 POP PUSH2 0x395 DUP2 PUSH2 0x62D JUMP JUMPDEST SWAP3 SWAP2 POP POP JUMP JUMPDEST PUSH1 0x0 DUP2 CALLDATALOAD SWAP1 POP PUSH2 0x3AA DUP2 PUSH2 0x644 JUMP JUMPDEST SWAP3 SWAP2 POP POP JUMP JUMPDEST PUSH1 0x0 PUSH1 0x20 DUP3 DUP5 SUB SLT ISZERO PUSH2 0x3C6 JUMPI PUSH2 0x3C5 PUSH2 0x587 JUMP JUMPDEST JUMPDEST PUSH1 0x0 PUSH2 0x3D4 DUP5 DUP3 DUP6 ADD PUSH2 0x386 JUMP JUMPDEST SWAP2 POP POP SWAP3 SWAP2 POP POP JUMP JUMPDEST PUSH1 0x0 DUP1 PUSH1 0x40 DUP4 DUP6 SUB SLT ISZERO PUSH2 0x3F4 JUMPI PUSH2 0x3F3 PUSH2 0x587 JUMP JUMPDEST JUMPDEST PUSH1 0x0 PUSH2 0x402 DUP6 DUP3 DUP7 ADD PUSH2 0x39B JUMP JUMPDEST SWAP3 POP POP PUSH1 0x20 PUSH2 0x413 DUP6 DUP3 DUP7 ADD PUSH2 0x386 JUMP JUMPDEST SWAP2 POP POP SWAP3 POP SWAP3 SWAP1 POP JUMP JUMPDEST PUSH2 0x426 DUP2 PUSH2 0x54B JUMP JUMPDEST DUP3 MSTORE POP POP JUMP JUMPDEST PUSH1 0x0 PUSH2 0x439 PUSH1 0x26 DUP4 PUSH2 0x53A JUMP JUMPDEST SWAP2 POP PUSH2 0x444 DUP3 PUSH2 0x58C JUMP JUMPDEST PUSH1 0x40 DUP3 ADD SWAP1 POP SWAP2 SWAP1 POP JUMP JUMPDEST PUSH1 0x0 PUSH2 0x45C PUSH1 0xF DUP4 PUSH2 0x53A JUMP JUMPDEST SWAP2 POP PUSH2 0x467 DUP3 PUSH2 0x5DB JUMP JUMPDEST PUSH1 0x20 DUP3 ADD SWAP1 POP SWAP2 SWAP1 POP JUMP JUMPDEST PUSH1 0x0 PUSH2 0x47F PUSH1 0x20 DUP4 PUSH2 0x53A JUMP JUMPDEST SWAP2 POP PUSH2 0x48A DUP3 PUSH2 0x604 JUMP JUMPDEST PUSH1 0x20 DUP3 ADD SWAP1 POP SWAP2 SWAP1 POP JUMP JUMPDEST PUSH2 0x49E DUP2 PUSH2 0x57D JUMP JUMPDEST DUP3 MSTORE POP POP JUMP JUMPDEST PUSH1 0x0 PUSH1 0x20 DUP3 ADD SWAP1 POP PUSH2 0x4B9 PUSH1 0x0 DUP4 ADD DUP5 PUSH2 0x41D JUMP JUMPDEST SWAP3 SWAP2 POP POP JUMP JUMPDEST PUSH1 0x0 PUSH1 0x20 DUP3 ADD SWAP1 POP DUP2 DUP2 SUB PUSH1 0x0 DUP4 ADD MSTORE PUSH2 0x4D8 DUP2 PUSH2 0x42C JUMP JUMPDEST SWAP1 POP SWAP2 SWAP1 POP JUMP JUMPDEST PUSH1 0x0 PUSH1 0x20 DUP3 ADD SWAP1 POP DUP2 DUP2 SUB PUSH1 0x0 DUP4 ADD MSTORE PUSH2 0x4F8 DUP2 PUSH2 0x44F JUMP JUMPDEST SWAP1 POP SWAP2 SWAP1 POP JUMP JUMPDEST PUSH1 0x0 PUSH1 0x20 DUP3 ADD SWAP1 POP DUP2 DUP2 SUB PUSH1 0x0 DUP4 ADD MSTORE PUSH2 0x518 DUP2 PUSH2 0x472 JUMP JUMPDEST SWAP1 POP SWAP2 SWAP1 POP JUMP JUMPDEST PUSH1 0x0 PUSH1 0x20 DUP3 ADD SWAP1 POP PUSH2 0x534 PUSH1 0x0 DUP4 ADD DUP5 PUSH2 0x495 JUMP JUMPDEST SWAP3 SWAP2 POP POP JUMP JUMPDEST PUSH1 0x0 DUP3 DUP3 MSTORE PUSH1 0x20 DUP3 ADD SWAP1 POP SWAP3 SWAP2 POP POP JUMP JUMPDEST PUSH1 0x0 PUSH2 0x556 DUP3 PUSH2 0x55D JUMP JUMPDEST SWAP1 POP SWAP2 SWAP1 POP JUMP JUMPDEST PUSH1 0x0 PUSH20 0xFFFFFFFFFFFFFFFFFFFFFFFFFFFFFFFFFFFFFFFF DUP3 AND SWAP1 POP SWAP2 SWAP1 POP JUMP JUMPDEST PUSH1 0x0 DUP2 SWAP1 POP SWAP2 SWAP1 POP JUMP JUMPDEST PUSH1 0x0 DUP1 REVERT JUMPDEST PUSH32 0x4F776E61626C653A206E6577206F776E657220697320746865207A65726F2061 PUSH1 0x0 DUP3 ADD MSTORE PUSH32 0x6464726573730000000000000000000000000000000000000000000000000000 PUSH1 0x20 DUP3 ADD MSTORE POP JUMP JUMPDEST PUSH32 0x43616E27742072656E6F756E6365210000000000000000000000000000000000 PUSH1 0x0 DUP3 ADD MSTORE POP JUMP JUMPDEST PUSH32 0x4F776E61626C653A2063616C6C6572206973206E6F7420746865206F776E6572 PUSH1 0x0 DUP3 ADD MSTORE POP JUMP JUMPDEST PUSH2 0x636 DUP2 PUSH2 0x54B JUMP JUMPDEST DUP2 EQ PUSH2 0x641 JUMPI PUSH1 0x0 DUP1 REVERT JUMPDEST POP JUMP JUMPDEST PUSH2 0x64D DUP2 PUSH2 0x57D JUMP JUMPDEST DUP2 EQ PUSH2 0x658 JUMPI PUSH1 0x0 DUP1 REVERT JUMPDEST POP JUMP INVALID LOG2 PUSH5 0x6970667358 0x22 SLT KECCAK256 DUP7 SHR SWAP15 0x26 DELEGATECALL 0xA9 SHR 0x5F SHL 0xBF 0xE3 0xFB SWAP4 0xB6 DIV PUSH4 0x1482197D MULMOD 0xDA 0x24 MUL 0xE7 PUSH17 0x534B6C2FBB1E64736F6C63430008070033 "
				},
				"gasEstimates": {
					"creation": {
						"codeDepositCost": "336200",
						"executionCost": "infinite",
						"totalCost": "infinite"
					},
					"external": {
						"addLimit(uint256,address)": "22832",
						"members(address)": "2792",
						"owner()": "2566",
						"renounceOwnership()": "2720",
						"transferOwnership(address)": "30813"
					},
					"internal": {
						"cutTheBalance(address,uint256)": "infinite",
						"isOwner()": "infinite"
					}
				},
				"methodIdentifiers": {
					"addLimit(uint256,address)": "17b3fe16",
					"members(address)": "08ae4b0c",
					"owner()": "8da5cb5b",
					"renounceOwnership()": "715018a6",
					"transferOwnership(address)": "f2fde38b"
				}
			},
			"storageLayout": {
				"storage": [
					{
						"astId": 7,
						"contract": "contracts/SharedWallet.sol:SharedWallet",
						"label": "_owner",
						"offset": 0,
						"slot": "0",
						"type": "t_address"
					},
					{
						"astId": 143,
						"contract": "contracts/SharedWallet.sol:SharedWallet",
						"label": "members",
						"offset": 0,
						"slot": "1",
						"type": "t_mapping(t_address,t_uint256)"
					}
				],
				"types": {
					"t_address": {
						"encoding": "inplace",
						"label": "address",
						"numberOfBytes": "20"
					},
					"t_mapping(t_address,t_uint256)": {
						"encoding": "mapping",
						"key": "t_address",
						"label": "mapping(address => uint256)",
						"numberOfBytes": "32",
						"value": "t_uint256"
					},
					"t_uint256": {
						"encoding": "inplace",
						"label": "uint256",
						"numberOfBytes": "32"
					}
				}
			},
			"userdoc": {
				"kind": "user",
				"methods": {},
				"version": 1
			}
		}
	}
}